S00E00006D617472697A2E737265637F
S11300000C9434000C9451000C9451000C94510045
S11300100C9451000C9451000C9451000C94510018
S11300200C9451000C9451000C9451000C94510008
S11300300C9451000C9451000C9451000C945100F8
S11300400C9451000C9451000C9451000C945100E8
S11300500C9451000C9451000C9451000C945100D8
S11300600C9451000C94510011241FBECFEFD8E022
S1130070DEBFCDBF11E0A0E0B1E0EAE0FBE102C0E9
S113008005900D92AC35B107D9F721E0ACE5B1E0AC
S113009001C01D92A036B207E1F70E9467060C94D6
S11300A0830D0C94000080E48093C00088E080936A
S11300B0C10086E08093C20087E68093C40010925A
S11300C0C5000895E0ECF0E0908195FFFDCF8093AA
S11300D0C6000895CF93DF93EC018881882331F023
S11300E021960E94620089918111FBCFDF91CF910B
S11300F008958F929F92AF92BF92DF92EF92FF92F8
S11301000F931F93CF93DF93CDB7DEB764970FB6EA
S1130110F894DEBF0FBECDBF9B01AC017E0184E12C
S1130120E80EF11C02E110E00F2EFDECDF2EF02DA5
S11301300F2EFAE08F2E912CA12CB12CF02D2D9D99
S1130140912D1124969596959695990F892F880F40
S1130150880F980F822F891B805DF70182937F019E
S1130160CA01B901A50194010E94F20801501109C4
S1130170211531054105510519F001301105F9F634
S11301801C8ACE01800F911F02960E946A00649619
S11301900FB6F894DEBF0FBECDBFDF91CF911F9194
S11301A00F91FF90EF90DF90BF90AF909F908F9052
S11301B008950F931F93CF93DF93CDB7DEB7649762
S11301C00FB6F894DEBF0FBECDBF9F938F937F937E
S11301D06F9386E091E09F938F938E010F5F1F4F83
S11301E01F930F930E94990AC8010E946A000FB6D8
S11301F0F894DEBF0FBECDBF64960FB6F894DEBF91
S11302000FBECDBFDF91CF911F910F910895CF9273
S1130210DF92FF920F931F93CF93DF931816190663
S1130220B4F516161706B4F5493611F04636A9F595
S1130230F42E6B018C0187E090E00E947109EC01BF
S1130240892B39F48DE091E00E946A0080E090E00F
S113025029C01B830A83DD82CC82FE8264E070E0C5
S11302600C9DC0010D9D900D1C9D900D11240E94AC
S1130270550999838883892B99F48DE091E00E9434
S11302806A00CE010E94090A80E090E00BC080E081
S113029090E008C080E090E005C080E090E002C0FB
S11302A08C2F9D2FDF91CF911F910F91FF90DF90A5
S11302B0CF900895FC01892BA1F024813581629FA0
S11302C0C001639F900D729F900D1124480F591F18
S11302D0440F551F440F551F80819181840F951F32
S11302E0089580E090E008950097C9F0FC0126810C
S11302F0263661F0293699F40E945A01FC01608186
S11303007181828193810E94790008950E945A012B
S1130310FC0160817181828193810E94D9000895DA
S1130320CF92DF92EF92FF920F931F93CF93DF93BD
S1130330CDB7DEB76E970FB6F894DEBF0FBECDBF54
S11303407C01009709F45AC0FC018681863619F0B5
S113035086E291E002C080E291E09F938F93F701DF
S113036085818F9384818F9383818F9382818F93EF
S11303708AE291E09F938F938E010F5F1F4F1F932B
S11303800F930E94990AC8010E946A000FB6F8945C
S1130390DEBF0FBECDBFF701828193811816190607
S11303A08CF5C12CD12C84E491E00E946A00F70101
S11303B084819581181619069CF400E010E086E407
S11303C091E00E946A00A801B601C7010E9474016D
S11303D00F5F1F4FF70184819581081719077CF37C
S11303E088E491E00E946A00FFEFCF1ADF0AF70168
S11303F082819381C816D906B4F204C08DE491E0D9
S11304000E946A006E960FB6F894DEBF0FBECDBF91
S1130410DF91CF911F910F91FF90EF90DF90CF90DC
S11304200895CF93DF93DC01ED91FC91309759F05F
S1130430EC01808191810E94090A888199810E943E
S1130440090A19821882DF91CF9108954F925F9221
S11304506F927F928F929F92AF92BF92CF92EF92C0
S11304600F9349015A01462E572E682E792E26E6FF
S1130470C216A1F129E6C2128BC0063619F009365C
S113048089F00DC0462E572E682E792EC301B20175
S11304900E94B1072B01770F6608770803C0412C2F
S11304A0512C320186E6E81641F029E6E21211C029
S11304B0480C591C6A1C7B1C0CC0C501B4010E9469
S11304C0B107CB01770FAA0BBB0B480E591E6A1E4E
S11304D07B1E642D752D862D972D5EC0063671F01A
S11304E0093621F50E94E90720E030E0A9010E94C5
S11304F04507462E572E682E792E1CC0462E572EA1
S1130500682E792EC301B2010E94B107072E000C98
S1130510880B990B0E94E90720E030E0A9010E94B2
S11305204507462E572E682E792E04C0412C512C97
S1130530612C712C86E6E81691F029E6E21223C0BC
S1130540C501B4010E94E907242D352D462D572DF0
S11305500E944507462E572E682E792E14C0C501D9
S1130560B4010E94B107072E000C880B990B0E945E
S1130570E907242D352D462D572D0E944507462E7B
S1130580572E682E792E642D752D862D972D04C037
S113059060E070E080E090E00F91EF90CF90BF902A
S11305A0AF909F908F907F906F905F904F90089541
S11305B04F925F926F927F928F929F92AF92BF926F
S11305C0CF92EF920F93CF93DF9349015A01462EB6
S11305D0572E682E792E26E6C216C1F129E6C212DC
S11305E085C0063619F0093691F00DC0462E572EF7
S11305F0682E792EC301B2010E94B1072B01770F37
S11306006608770804C0412C512C3201439486E6D5
S1130610E81661F029E6E21214C0A3019201C501B3
S1130620B4010E94E2082B013C010BC0C501B401D6
S11306300E94B107DB01A30192010E941C092B0156
S11306403C01642D752D862D972D54C0063649F036
S11306500936D1F40E94E907662E772ED82FC92FC8
S113066017C0462E572E682E792EC301B2010E9460
S1130670B107072E000C880B990B0E94E907662E20
S1130680772ED82FC92F04C0612C712CD0E8CFE36A
S113069086E6E81691F029E6E21223C0C501B4010A
S11306A00E94E907262D372D4D2F5C2F0E947508D7
S11306B0662E772ED82FC92F14C0C501B4010E940D
S11306C0B107072E000C880B990B0E94E907262D11
S11306D0372D4D2F5C2F0E947508662E772ED82F4C
S11306E0C92F662D772D8D2F9C2F04C060E070E0FC
S11306F080E090E0DF91CF910F91EF90CF90BF9089
S1130700AF909F908F907F906F905F904F900895DF
S11307102F923F924F925F926F927F928F929F920D
S1130720AF92BF92CF92EF92FF920F931F93CF930A
S1130730DF932C015B014A010E941102A114B10450
S113074009F485C08114910409F484C0D50112967A
S11307508D919C911397F401228133818217930721
S113076009F07BC014966D917C9115972481358195
S11307706217730709F074C016964C91463621F03F
S11307804681463609F049E60E940701FC01D20180
S11307908D939C93892B09F465C0828193811816EB
S11307A019060CF445C05EC0C0E0D0E0AE01B10152
S11307B0C7010E945A013C01AE01B101C4010E946B
S11307C05A018C01AE01B101C5010E945A01F80120
S11307D02081318142815381DC016D917D918D9124
S11307E09C91F701C680D4011696EC90F501068120
S11307F00E942602D3016D937D938D939C9313974E
S11308002196F201E080F180D70114968D919C919C
S11308101597C817D90754F2BFEF2B1A3B0AD20118
S1130820ED91FC9182819381281639061CF01AC03F
S1130830212C312CF201E080F180D70114968D91A6
S11308409C911597181619060CF4AECFE5CFE0E08D
S1130850F0E008C0E0E0F0E005C0E0E0F0E002C055
S1130860E0E0F0E0CF01DF91CF911F910F91FF9075
S1130870EF90CF90BF90AF909F908F907F906F90AC
S11308805F904F903F902F9008952F923F926F92D8
S11308907F928F929F92AF92BF92CF92EF92FF92EC
S11308A00F931F93CF93DF9300D000D000D0CDB728
S11308B0DEB71C015B0129833A834B835C83F02EF2
S11308C00E941102A114B10409F471C0D501169655
S11308D04C91463631F0B6E60B1711F049E601C0EB
S11308E046E6F50164817581828193810E94070146
S11308F0FC01D1018D939C93892B09F45AC0828108
S11309009381181619060CF443C053C01E821D822D
S11309104D815E81B301C8010E945A014C014D8191
S11309205E81B301C5010E945A01FC01608171819D
S113093082819381D8011696CC90EF2CF501068123
S113094029813A814B815C810E94D802D4016D9344
S11309507D938D939C931397ED81FE813196FE8355
S1130960ED83D1010D911C91F801848195812D8134
S11309703E812817390764F23FEF631A730AD101E5
S1130980ED91FC9182819381681679061CF011C067
S1130990612C712CF10100811181D80114968D9183
S11309A09C911597181619060CF4B0CFE5CFE0E02A
S11309B0F0E0CF0126960FB6F894DEBF0FBECDBF90
S11309C0DF91CF911F910F91FF90EF90CF90BF9047
S11309D0AF909F908F907F906F903F902F9008954D
S11309E02F923F924F925F926F927F928F929F923B
S11309F0AF92BF92CF92EF92FF920F931F93CF9338
S1130A00DF93CDB7DEB728970FB6F894DEBF0FBEDD
S1130A10CDBF4C015B012A010E941102A114B10453
S1130A2009F4C7C04114510409F4C3C0D501149694
S1130A302D913C911597F2018281938128173907F2
S1130A4009F0B7C016964C91463621F046814636D9
S1130A5009F049E6D20114966D917C911597F50140
S1130A60828193810E940701D4018D939C93009706
S1130A7009F49FC0FC0182819381181619060CF4B5
S1130A8089C097C0212C312CA101B3010E945A01C5
S1130A90DC011D921D921D921C921397F501848115
S1130AA09581181619060CF05AC018861F82D401B5
S1130AB00D911C91A101B301C8010E945A019A83AE
S1130AC08983F8011681A1016F817885C2010E9492
S1130AD05A017C014F815885B301C5010E945A0116
S1130AE0D7012D913D914D915C91FC016081718103
S1130AF082819381C12ED2011696EC90F501068174
S1130B000E94D8026B837C838D839E83A101B301F1
S1130B10D4018D919C910E945A01FC0160817181E4
S1130B2082819381E12E012F2B813C814D815E8155
S1130B300E942602A981BA816D937D938D939C9323
S1130B401397EF81F8853196F887EF83D5011496D2
S1130B508D919C911597E817F9070CF4A8CFBFEF76
S1130B602B1A3B0AF40180819181DC0114962D91AA
S1130B703C911597221633060CF486CFBFEF6B1AFF
S1130B807B0AD401ED91FC918281938168167906E8
S1130B901CF00FC0612C712CF40180819181DC0167
S1130BA014962D913C911597121613060CF46ACFE6
S1130BB0E5CF80E090E028960FB6F894DEBF0FBE34
S1130BC0CDBFDF91CF911F910F91FF90EF90CF9008
S1130BD0BF90AF909F908F907F906F905F904F9059
S1130BE03F902F900895AF92BF92CF92DF92EF92F1
S1130BF0FF920F931F93CF93DF937C016B010E94AD
S1130C001102C114D10409F454C0D60112966D9195
S1130C107C91139716964C91169714968D919C91EE
S1130C2015970E940701FC01D7018D939C93892B92
S1130C3009F441C0828193811816190664F13BC0FE
S1130C40C0E0D0E0AE01B8010E945A015C01A801E5
S1130C50BE01C6010E945A01FC0180819181A281DA
S1130C60B381F50180839183A283B3832196D70155
S1130C708D919C91FC0124813581C217D30714F313
S1130C800F5F1F4FD701ED91FC918281938108176B
S1130C9019071CF010C000E010E0F7018081918179
S1130CA0DC0114962D913C9115971216130644F20B
S1130CB0E7CFE0E0F0E0CF01DF91CF911F910F91FA
S1130CC0FF90EF90DF90CF90BF90AF900895CF93B7
S1130CD0DF9300D000D000D0CDB7DEB70E94530020
S1130CE049E664E070E084E090E00E9407019A83A2
S1130CF0898346E664E070E084E090E00E940701A6
S1130D009C838B831E821D82C12CD12C760186018B
S1130D10C60183709078992324F401978C6F9F6F98
S1130D200196A82EB92EC80111230CF403964C0188
S1130D3095948794959487944A2D5B2DB401898169
S1130D409A810E945A01FC01C082D182E282F3821C
S1130D50A4016A2D7B2D8B819C810E945A015C0128
S1130D60B801110F880B990B0E94E907F501608304
S1130D70718382839383FFEFCF1ADF0AEF0AFF0A9E
S1130D8080E1C816D104E104F10409F689819A814D
S1130D900E94900181E491E00E946A008B819C8111
S1130DA00E94900181E491E00E946A008D819E81FD
S1130DB00E94900181E491E00E946A004B815C8171
S1130DC069817A81CE0105960E9488038D819E8176
S1130DD00E94900181E491E00E946A0069817A8115
S1130DE006E620E030E040E450E4CE0105960E949F
S1130DF045048D819E810E94900181E491E00E94CE
S1130E006A004B815C8169817A81CE0105960E94DA
S1130E10F0048D819E810E94900181E491E00E9402
S1130E206A006B817C81CE0105960E94F3058D8159
S1130E309E810E94900181E491E00E946A00CE01AB
S1130E4001960E941102CE0103960E941102CE0166
S1130E5005960E94110289819A810E94900181E481
S1130E6091E00E946A008B819C810E94900181E440
S1130E7091E00E946A008D819E810E94900181E42C
S1130E8091E00E946A00FFCF5058BB27AA270E9416
S1130E905C070C943B080E942D0838F00E9434082B
S1130EA020F039F49F3F19F426F40C942A080EF428
S1130EB0E095E7FB0C942408E92F0E944C0858F3B2
S1130EC0BA17620773078407950720F079F4A6F52B
S1130ED00C946E080EF4E0950B2EBA2FA02D0B0186
S1130EE0B90190010C01CA01A0011124FF27591B6B
S1130EF099F0593F50F4503E68F11A16F040A22F71
S1130F00232F342F4427585FF3CF469537952795E1
S1130F10A795F0405395C9F77EF41F16BA0B620BE0
S1130F20730B840BBAF09150A1F0FF0FBB1F661F27
S1130F30771F881FC2F70EC0BA0F621F731F841F6A
S1130F4048F4879577956795B795F7959E3F08F090
S1130F50B0CF9395880F08F09927EE0F9795879552
S1130F6008950E94B8076894B1110C946F0808950D
S1130F700E94540888F09F5798F0B92F9927B751C9
S1130F80B0F0E1F0660F771F881F991F1AF0BA9529
S1130F90C9F714C0B13091F00E946E08B1E0089511
S1130FA00C946E08672F782F8827B85F39F0B93F03
S1130FB0CCF3869577956795B395D9F73EF49095DC
S1130FC08095709561957F4F8F4F9F4F0895E8945A
S1130FD009C097FB3EF490958095709561957F4F7D
S1130FE08F4F9F4F9923A9F0F92F96E9BB2793952B
S1130FF0F695879577956795B795F111F8CFFAF43B
S1131000BB0F11F460FF1BC06F5F7F4F8F4F9F4F6B
S113101016C0882311F096E911C0772321F09EE8C9
S1131020872F762F05C0662371F096E8862F70E02F
S113103060E02AF09A95660F771F881FDAF7880F09
S11310409695879597F9089597F99F6780E870E0DA
S113105060E008959FEF80EC089500240A9416162A
S1131060170618060906089500240A941216130692
S1131070140605060895092E0394000C11F4882320
S113108052F0BB0F40F4BF2B11F460FF04C06F5F3C
S11310907F4F8F4F9F4F089557FD9058440F551F12
S11310A059F05F3F71F04795880F97FB991F61F0E6
S11310B09F3F79F087950895121613061406551F5D
S11310C0F2CF4695F1DF08C0161617061806991FC9
S11310D0F1CF86957105610508940895E894BB27BE
S11310E066277727CB0197F908950E9488080C9406
S11310F03B080E942D0838F00E94340820F0952304
S113110011F00C9424080C942A0811240C946F08F0
S11311100E944C0870F3959FC1F3950F50E0551F42
S1131120629FF001729FBB27F00DB11D639FAA2738
S1131130F00DB11DAA1F649F6627B00DA11D661F87
S1131140829F2227B00DA11D621F739FB00DA11DA8
S1131150621F839FA00D611D221F749F3327A00D62
S1131160611D231F849F600D211D822F762F6A2FFE
S113117011249F5750409AF0F1F088234AF0EE0F63
S1131180FF1FBB1F661F771F881F91505040A9F790
S11311909E3F510580F00C9424080C946F085F3F27
S11311A0E4F3983ED4F3869577956795B795F795CC
S11311B0E7959F5FC1F7FE2B880F911D9695879544
S11311C097F90895DB018F939F930E941109BF91B2
S11311D0AF91A29F800D911DA39F900DB29F900D82
S11311E011240895052E97FB1EF400940E9409090A
S11311F057FD07D00E94240907FC03D04EF40C9439
S1131200090950954095309521953F4F4F4F5F4FB9
S1131210089590958095709561957F4F8F4F9F4F5E
S113122008950E944609A59F900DB49F900DA49F18
S1131230800D911D11240895B7FF0C9411090E948B
S11312401109821B930B0895A1E21A2EAA1BBB1B42
S1131250FD010DC0AA1FBB1FEE1FFF1FA217B3077E
S1131260E407F50720F0A21BB30BE40BF50B661F94
S1131270771F881F991F1A9469F760957095809558
S113128090959B01AC01BD01CF010895A29FB001CF
S1131290B39FC001A39F700D811D1124911DB29FA6
S11312A0700D811D1124911D08950F931F93CF93E9
S11312B0DF93869F8001879F100D969F100D112448
S11312C0C8010E947109EC01009729F0A80160E0AF
S11312D070E00E94920ACE01DF91CF911F910F918D
S11312E008950F931F93CF93DF938230910510F4E9
S11312F082E090E0E0915E01F0915F0120E030E057
S1131300A0E0B0E0309719F140815181028113814E
S113131048175907C8F08417950769F4109731F0F6
S113132012960C93129713961C9327C000935E0198
S113133010935F0122C02115310519F0421753079C
S113134018F49A01BD01EF01DF01F801DBCF21158B
S11313503105F9F0281B390B2430310580F48A81DA
S11313609B816115710521F0FB019383828304C085
S113137090935F0180935E01FE01329644C0FE01AA
S1131380E20FF31F8193919322503109398328830B
S11313903AC020915C0130915D01232B41F42091EE
S11313A002013091030130935D0120935C0120918F
S11313B00001309101012115310541F42DB73EB7EB
S11313C04091040150910501241B350BE0915C010F
S11313D0F0915D01E217F307A0F42E1B3F0B2817D1
S11313E0390778F0AC014E5F5F4F2417350748F09A
S11313F04E0F5F1F50935D0140935C018193919365
S113140002C0E0E0F0E0CF01DF91CF911F910F9196
S11314100895CF93DF93009709F481C0FC013297BC
S113142013821282A0915E01B0915F01109781F442
S113143020813181820F931F20915C0130915D01E5
S11314402817390751F5F0935D01E0935C0167C0FB
S1131450ED0120E030E0CE17DF0740F44A815B81E4
S11314609E0141155105F1F0EA01F5CFD383C28302
S113147040815181840F951FC817D90759F4888179
S11314809981840F951F0296918380838A819B8121
S1131490938382832115310529F4F0935F01E0934E
S11314A05E013DC0E901FB83EA8349915991C40F70
S11314B0D51FEC17FD0761F480819181840F951F7E
S11314C00296E90199838883828193819B838A832D
S11314D0E0E0F0E012968D919C911397009719F03B
S11314E0FD01DC01F7CF8D919C9111979D012E5F39
S11314F03F4F820F931F20915C0130915D012817AB
S1131500390769F4309729F410925F0110925E0153
S113151002C013821282B0935D01A0935C01DF913B
S1131520CF910895DC0101C06D9341505040E0F724
S11315300895AEE0B0E0EFE9FAE00C945A0D0D899D
S11315401E8986E08C831A8309838FEF9FE79E832D
S11315508D83AE01475E5F4F6F89788DCE01019612
S11315600E94BB0AEF81F885E00FF11F10822E96CE
S1131570E4E00C94760DABE0B0E0E1ECFAE00C941E
S11315804C0D6C017B018A01FC0117821682838158
S113159081FFCCC1CE0101963C01F6019381F70194
S11315A093FD859193FF81917F01882309F4BAC14A
S11315B0853239F493FD859193FF81917F018532C2
S11315C029F4B60190E00E94B20CE7CF912C212CB3
S11315D0312CFFE1F315D8F08B3279F038F48032F6
S11315E079F08332A1F4232D20611DC08D3261F086
S11315F0803369F4232D216016C0832D8260382E38
S1131600E32DE4603E2E2AC0F32DF8601DC037FCA4
S11316102DC020ED280F2A3040F08E32B9F436FC6C
S113162081C1232D2064322E19C036FE06C08AE003
S1131630989E200D1124922E11C0EAE02E9E200DBA
S11316401124222EF32DF0623F2E08C08C3621F493
S1131650832D8068382E02C0883641F4F70193FD4B
S1131660859193FF81917F018111B3CF982F9F7D45
S11316709554933028F40C5F1F4F9FE399830DC05A
S1131680833631F0833771F0833509F059C021C0B6
S1131690F801808189830E5F1F4F88248394912CE5
S11316A0530113C02801F2E04F0E511CF801A08031
S11316B0B18036FE03C0692D70E002C06FEF7FEF8A
S11316C0C5010E94A70C4C018201F32DFF773F2E28
S11316D016C0280122E0420E511CF801A080B180FE
S11316E036FE03C0692D70E002C06FEF7FEFC501C5
S11316F00E949C0C4C01F32DF0683F2E820133FCB8
S11317001BC0822D90E088169906B0F4B60180E2E1
S113171090E00E94B20C2A94F4CFF50137FC859135
S113172037FE81915F01B60190E00E94B20C211056
S11317302A9421E0821A91088114910471F7E8C077
S1131740843611F0893641F5F80137FE07C060810F
S11317507181828193810C5F1F4F08C06081718108
S1131760072E000C880B990B0E5F1F4FF32DFF768D
S11317703F2E97FF09C090958095709561957F4F96
S11317808F4F9F4FF0683F2E2AE030E0A3010E9464
S1131790EE0C882E861845C0853731F4232D2F7E14
S11317A0B22E2AE030E025C0932D997FB92E8F36D2
S11317B0C1F018F4883579F0B5C0803719F088374E
S11317C021F0B0C0E92FE061BE2EB4FE0DC0FB2DA8
S11317D0F460BF2E09C034FE0AC0292F2660B22E41
S11317E006C028E030E005C020E130E002C020E17E
S11317F032E0F801B7FE07C0608171818281938174
S11318000C5F1F4F06C06081718180E090E00E5F25
S11318101F4FA3010E94EE0C882E8618FB2DFF7724
S11318203F2E36FE0DC0232D2E7FA22E891458F490
S113183034FE0BC032FC09C0832D8E7EA82E05C059
S1131840B82CA32C03C0B82C01C0B92CA4FE0FC023
S1131850FE01E80DF11D8081803321F49A2D997EDB
S1131860A92E09C0A2FE06C0B394B39404C08A2D65
S1131870867809F0B394A3FC11C0A0FE06C0B2148C
S113188088F4280C922C9B180EC0B21460F4B60194
S113189080E290E00E94B20CB394F7CFB21418F433
S11318A02B1802C0982C212CA4FE10C0B60180E392
S11318B090E00E94B20CA2FE17C0A1FC03C088E70E
S11318C090E002C088E590E0B6010CC08A2D8678CD
S11318D059F0A1FE02C08BE201C080E2A7FC8DE2B8
S11318E0B60190E00E94B20C891438F4B60180E38A
S11318F090E00E94B20C9A94F7CF8A94F301E80D19
S1131900F11D8081B60190E00E94B20C8110F5CFE8
S1131910222009F442CEB60180E290E00E94B20C8B
S11319202A94F6CFF6018681978102C08FEF9FEF4C
S11319302B96E2E10C94680DFC0105906150704017
S11319400110D8F7809590958E0F9F1F0895FC0184
S11319506150704001900110D8F7809590958E0FDA
S11319609F1F08950F931F93CF93DF93FB01238150
S113197021FD03C08FEF9FEF2CC022FF16C04681CC
S11319805781248135814217530744F4A081B181E2
S11319909D012F5F3F4F318320838C9326813781B4
S11319A02F5F3F4F3783268314C08B01EC01FB016B
S11319B00084F185E02D0995892BE1F6D80116966E
S11319C08D919C911797019617969C938E931697D9
S11319D0CE01DF91CF911F910F910895FA01AA27AB
S11319E0283051F1203181F1E8946F936E7F6E5F5E
S11319F07F4F8F4F9F4FAF4FB1E03ED0B4E03CD00C
S1131A00670F781F891F9A1FA11D680F791F8A1FEE
S1131A10911DA11D6A0F711D811D911DA11D20D055
S1131A2009F468943F912AE0269F11243019305D0F
S1131A303193DEF6CF010895462F4770405D419300
S1131A40B3E00FD0C9F7F6CF462F4F70405D4A334D
S1131A5018F0495D31FD4052419302D0A9F7EACF15
S1131A60B4E0A6959795879577956795BA95C9F744
S1131A7000976105710508959B01AC010A2E069437
S1131A805795479537952795BA95C9F7620F731FF0
S1131A90841F951FA01D08952F923F924F925F922D
S1131AA06F927F928F929F92AF92BF92CF92DF926A
S1131AB0EF92FF920F931F93CF93DF93CDB7DEB7CF
S1131AC0CA1BDB0B0FB6F894DEBF0FBECDBF099463
S1131AD02A88398848885F846E847D848C849B84BA
S1131AE0AA84B984C884DF80EE80FD800C811B81C8
S1131AF0AA81B981CE0FD11D0FB6F894DEBF0FBEF7
S10D1B00CDBFED010895F894FFCF66
S1131B0A0000600120002530352E33660046616CE2
S1131B1A7461206465204D656DF37269610D0A0074
S1131B2A466C6F617400496E74004D3A2025643B1B
S1131B3A204E3A2025643B20547970653A20257357
S1131B4A200D0A007C000900097C0D0A004D61740D
S10F1B5A72697A204E756C610D0A00005F
S9030000FC
