S00E00006D617472697A2E737265637F
S11300000C94B5000C94D2000C94D2000C94D20041
S11300100C94D2000C94D2000C94D2000C94D20014
S11300200C94D2000C94D2000C94D2000C94D20004
S11300300C94D2000C94D2000C94D2000C94D200F4
S11300400C94D2000C94D2000C94D2000C94D200E4
S11300500C94D2000C94D2000C94D2000C94D200D4
S11300600C94D2000C94D2006E616E00696E66002E
S113007000407A10F35A00A0724E18090010A5D45B
S1130080E80000E87648170000E40B54020000CAB8
S11300909A3B000000E1F5050000809698000000FE
S11300A040420F000000A08601000000102700005D
S11300B00000E803000000006400000000000A00E3
S11300C0000000000100000000002C76D888DC67E6
S11300D04F0823DFC1DFAE59E1B1B796E5E3E4533E
S11300E0C63AE651997696E8E6C28426EB898C9B5B
S11300F062ED407C6FFCEFBC9C9F40F2BAA56FA5FB
S1130100F490055A2AF75C936B6CF9676DC11BFC7C
S1130110E0E40D47FEF520E6B500D0ED902E030097
S1130120943577050080841E080000204E0A0000E4
S113013000C80C333333330F986E12831141EF8DA3
S11301402114893BE65516CFFEE6DB18D1844B38E3
S11301501BF77C1D901DA4BBE424203284725E2214
S11301608100C9F124ECA1E53D2711241FBECFEF86
S1130170D8E0DEBFCDBF11E0A0E0B1E0E2EBF0E2F9
S113018002C005900D92A834B107D9F721E0A8E484
S1130190B1E001C01D92AC34B207E1F70E94C7067A
S11301A00C9457100C94000080E48093C00088E005
S11301B08093C10086E08093C20087E68093C400E8
S11301C01092C5000895E0ECF0E0908195FFFDCF1A
S11301D08093C6000895CF93DF93EC018881882330
S11301E031F021960E94E30089918111FBCFDF91C8
S11301F0CF9108958F929F92AF92BF92DF92EF9228
S1130200FF920F931F93CF93DF93CDB7DEB764971D
S11302100FB6F894DEBF0FBECDBF9B01AC017E01CB
S113022084E1E80EF11C02E110E00F2EFDECDF2E5C
S1130230F02D0F2EFAE08F2E912CA12CB12CF02D45
S11302402D9D912D1124969596959695990F892F0C
S1130250880F880F980F822F891B805DF701829386
S11302607F01CA01B901A50194010E94CF0C01507C
S11302701109211531054105510519F00130110508
S1130280F9F61C8ACE01800F911F02960E94EB00A2
S113029064960FB6F894DEBF0FBECDBFDF91CF9149
S11302A01F910F91FF90EF90DF90BF90AF909F90C0
S11302B08F9008950F931F93CF93DF93CDB7DEB73D
S11302C064970FB6F894DEBF0FBECDBF9F938F9394
S11302D07F936F9386E091E09F938F938E010F5FDE
S11302E01F4F1F930F930E94D70FC8010E94EB006A
S11302F00FB6F894DEBF0FBECDBF64960FB6F89468
S1130300DEBF0FBECDBFDF91CF911F910F91089536
S1130310CF92DF92FF920F931F93CF93DF93181620
S1130320190624F51616170624F5493611F0463633
S113033019F5F42E6B018C0187E090E00E94850D85
S1130340EC011B830A83DD82CC82FE8264E070E0D0
S11303500C9DC0010D9D900D1C9D900D11240E94BB
S1130360690D998388838C2F9D2F08C080E090E0CD
S113037005C080E090E002C080E090E0DF91CF9182
S11303801F910F91FF90DF90CF900895FC01892B6E
S1130390A1F024813581629FC001639F900D729FFB
S11303A0900D1124480F591F440F551F440F551F1A
S11303B080819181840F951F089580E090E00895D5
S11303C00097C9F0FC012681263661F0293699F49C
S11303D00E94C601FC0160817181828193810E9427
S11303E0FA0008950E94C601FC0160817181828136
S11303F093810E945A010895CF92DF92EF92FF9267
S11304000F931F93CF93DF93CDB7DEB76E970FB6DD
S1130410F894DEBF0FBECDBF7C01009709F45AC02B
S1130420FC018681863619F083E191E002C08DE0FB
S113043091E09F938F93F70185818F9384818F93AC
S113044083818F9382818F9387E191E09F938F9330
S11304508E010F5F1F4F1F930F930E94D70FC80188
S11304600E94EB000FB6F894DEBF0FBECDBFF701BC
S113047082819381181619068CF5C12CD12C81E345
S113048091E00E94EB00F70184819581181619060A
S11304909CF400E010E083E391E00E94EB00A801EB
S11304A0B601C7010E94E0010F5F1F4FF70184816D
S11304B09581081719077CF385E391E00E94EB000E
S11304C0FFEFCF1ADF0AF70182819381C816D9069C
S11304D0B4F204C08AE391E00E94EB006E960FB67A
S11304E0F894DEBF0FBECDBFDF91CF911F910F9166
S11304F0FF90EF90DF90CF900895CF93DF93DC01CE
S1130500ED91FC91309759F0EC01808191810E942A
S11305101D0E888199810E941D0E19821882DF9117
S1130520CF9108954F925F926F927F928F929F9294
S1130530AF92BF92CF92EF920F9349015A01462E88
S1130540572E682E792E26E6C216A1F129E6C2128C
S11305508BC0063619F0093689F00DC0462E572E89
S1130560682E792EC301B2010E9411082B01770F66
S11305706608770803C0412C512C320186E6E81640
S113058041F029E6E21211C0480C591C6A1C7B1C7C
S11305900CC0C501B4010E941108CB01770FAA0B4E
S11305A0BB0B480E591E6A1E7B1E642D752D862DAD
S11305B0972D5EC0063671F0093621F50E94490870
S11305C020E030E0A9010E94A507462E572E682E90
S11305D0792E1CC0462E572E682E792EC301B201E7
S11305E00E941108072E000C880B990B0E944908E1
S11305F020E030E0A9010E94A507462E572E682E60
S1130600792E04C0412C512C612C712C86E6E816FD
S113061091F029E6E21223C0C501B4010E94490801
S1130620242D352D462D572D0E94A507462E572ED5
S1130630682E792E14C0C501B4010E941108072E3A
S1130640000C880B990B0E944908242D352D462D4A
S1130650572D0E94A507462E572E682E792E642DFD
S1130660752D862D972D04C060E070E080E090E049
S11306700F91EF90CF90BF90AF909F908F907F900D
S11306806F905F904F9008954F925F926F927F9218
S11306908F929F92AF92BF92CF92EF920F93CF938C
S11306A0DF9349015A01462E572E682E792E26E6ED
S11306B0C216C1F129E6C21285C0063619F0093600
S11306C091F00DC0462E572E682E792EC301B2012B
S11306D00E9411082B01770F6608770804C0412C8B
S11306E0512C3201439486E6E81661F029E6E212C1
S11306F014C0A3019201C501B4010E94BF0C2B01D7
S11307003C010BC0C501B4010E941108DB01A30127
S113071092010E94F90C2B013C01642D752D862D4C
S1130720972D54C0063649F00936D1F40E94490881
S1130730662E772ED82FC92F17C0462E572E682E17
S1130740792EC301B2010E941108072E000C880BF8
S1130750990B0E944908662E772ED82FC92F04C002
S1130760612C712CD0E8CFE386E6E81691F029E6F7
S1130770E21223C0C501B4010E944908262D372D79
S11307804D2F5C2F0E94D508662E772ED82FC92FA7
S113079014C0C501B4010E941108072E000C880B77
S11307A0990B0E944908262D372D4D2F5C2F0E944E
S11307B0D508662E772ED82FC92F662D772D8D2F2D
S11307C09C2F04C060E070E080E090E0DF91CF9166
S11307D00F91EF90CF90BF90AF909F908F907F90AC
S11307E06F905F904F9008952F923F924F925F9237
S11307F06F927F928F929F92AF92BF92CF92EF921D
S1130800FF920F931F93CF93DF932C015B014A0157
S11308100E947D02A114B10409F482C081149104E0
S113082009F481C0D50112968D919C911397F4011E
S1130830228133818217930709F078C014966D9151
S11308407C911597248135816217730709F071C073
S113085016964C91463621F04681463609F049E613
S11308600E948801FC01D2018D939C938281938123
S1130870181619060CF445C05EC0C0E0D0E0AE0105
S1130880B101C7010E94C6013C01AE01B101C4011E
S11308900E94C6018C01AE01B101C5010E94C601CE
S11308A0F8012081318142815381DC016D917D9178
S11308B08D919C91F701C680D4011696EC90F501B8
S11308C006810E949202D3016D937D938D939C9334
S11308D013972196F201E080F180D70114968D914F
S11308E09C911597C817D90754F2BFEF2B1A3B0AEE
S11308F0D201ED91FC9182819381281639061CF076
S11309001AC0212C312CF201E080F180D701149619
S11309108D919C911597181619060CF4AECFE5CF5E
S1130920E0E0F0E008C0E0E0F0E005C0E0E0F0E086
S113093002C0E0E0F0E0CF01DF91CF911F910F9171
S1130940FF90EF90CF90BF90AF909F908F907F904B
S11309506F905F904F903F902F9008952F923F9209
S11309606F927F928F929F92AF92BF92CF92EF92AB
S1130970FF920F931F93CF93DF9300D000D000D04A
S1130980CDB7DEB71C015B0129833A834B835C83BB
S1130990F02E0E947D02A114B10409F46EC0D501A9
S11309A016964C91463631F0B6E60B1711F049E62F
S11309B001C046E6F50164817581828193810E94BC
S11309C08801FC01D1018D939C9382819381181637
S11309D019060CF443C053C01E821D824D815E81F2
S11309E0B301C8010E94C6014C014D815E81B3016F
S11309F0C5010E94C601FC016081718182819381DD
S1130A00D8011696CC90EF2CF501068129813A8104
S1130A104B815C810E944403D4016D937D938D933B
S1130A209C931397ED81FE813196FE83ED83D10172
S1130A300D911C91F801848195812D813E812817A7
S1130A40390764F23FEF631A730AD101ED91FC9107
S1130A5082819381681679061CF011C0612C712C77
S1130A60F10100811181D80114968D919C91159703
S1130A70181619060CF4B0CFE5CFE0E0F0E0CF0192
S1130A8026960FB6F894DEBF0FBECDBFDF91CF918F
S1130A901F910F91FF90EF90CF90BF90AF909F90D8
S1130AA08F907F906F903F902F9008952F923F9258
S1130AB04F925F926F927F928F929F92AF92BF926A
S1130AC0CF92EF92FF920F931F93CF93DF93CDB703
S1130AD0DEB728970FB6F894DEBF0FBECDBF4C012A
S1130AE05B012A010E947D02A114B10409F4C4C06F
S1130AF04114510409F4C0C0D50114962D913C91C0
S1130B001597F201828193812817390709F0B4C03F
S1130B1016964C91463621F04681463609F049E650
S1130B20D20114966D917C911597F5018281938180
S1130B300E948801D4018D939C93FC01828193814E
S1130B40181619060CF489C097C0212C312CA10168
S1130B50B3010E94C601DC011D921D921D921C92DC
S1130B601397F50184819581181619060CF05AC063
S1130B7018861F82D4010D911C91A101B301C801F3
S1130B800E94C6019A838983F8011681A1016F81AD
S1130B907885C2010E94C6017C014F815885B3014A
S1130BA0C5010E94C601D7012D913D914D915C91E3
S1130BB0FC016081718182819381C12ED2011696DC
S1130BC0EC90F50106810E9444036B837C838D8342
S1130BD09E83A101B301D4018D919C910E94C60111
S1130BE0FC016081718182819381E12E012F2B812F
S1130BF03C814D815E810E949202A981BA816D93EC
S1130C007D938D939C931397EF81F8853196F887A4
S1130C10EF83D50114968D919C911597E817F907E8
S1130C200CF4A8CFBFEF2B1A3B0AF4018081918109
S1130C30DC0114962D913C911597221633060CF481
S1130C4086CFBFEF6B1A7B0AD401ED91FC918281B0
S1130C509381681679061CF00FC0612C712CF40185
S1130C6080819181DC0114962D913C911597121687
S1130C7013060CF46ACFE5CF80E090E028960FB617
S1130C80F894DEBF0FBECDBFDF91CF911F910F91BE
S1130C90FF90EF90CF90BF90AF909F908F907F90F8
S1130CA06F905F904F903F902F900895AF92BF92B6
S1130CB0CF92DF92EF92FF920F931F93CF93DF9324
S1130CC07C016B010E947D02C114D10409F451C05E
S1130CD0D60112966D917C91139716964C911697A6
S1130CE014968D919C9115970E948801FC01D7015F
S1130CF08D939C93828193811816190664F13BC0ED
S1130D00C0E0D0E0AE01B8010E94C6015C01A801B8
S1130D10BE01C6010E94C601FC0180819181A281AD
S1130D20B381F50180839183A283B3832196D70194
S1130D308D919C91FC0124813581C217D30714F352
S1130D400F5F1F4FD701ED91FC91828193810817AA
S1130D5019071CF010C000E010E0F70180819181B8
S1130D60DC0114962D913C9115971216130644F24A
S1130D70E7CFE0E0F0E0CF01DF91CF911F910F9139
S1130D80FF90EF90DF90CF90BF90AF900895CF93F6
S1130D90DF9300D000D000D0CDB7DEB70E94D400DE
S1130DA049E664E070E084E090E00E9488019A8360
S1130DB0898346E664E070E084E090E00E94880164
S1130DC09C838B831E821D82C12CD12C76018601CB
S1130DD0C60183709078992324F401978C6F9F6FD8
S1130DE00196A82EB92EC80111230CF403964C01C8
S1130DF095948794959487944A2D5B2DB4018981A9
S1130E009A810E94C601FC01C082D182E282F382EF
S1130E10A4016A2D7B2D8B819C810E94C6015C01FB
S1130E20B801110F880B990B0E944908F5016083E2
S1130E30718382839383FFEFCF1ADF0AEF0AFF0ADD
S1130E4080E1C816D104E104F10409F689819A818C
S1130E500E94FC018EE291E00E94EB008B819C8158
S1130E600E94FC018EE291E00E94EB008D819E8144
S1130E700E94FC018EE291E00E94EB004B815C81B8
S1130E8069817A81CE0105960E94F4038D819E8149
S1130E900E94FC018EE291E00E94EB0069817A815C
S1130EA006E620E030E040E450E4CE0105960E94DE
S1130EB0AE048D819E810E94FC018EE291E00E942D
S1130EC0EB004B815C8169817A81CE0105960E9499
S1130ED056058D819E810E94FC018EE291E00E9464
S1130EE0EB006B817C81CE0105960E9456068D81B4
S1130EF09E810E94FC018EE291E00E94EB00CE01F3
S1130F0001960E947D02CE0103960E947D02CE01CD
S1130F1005960E947D0289819A810E94FC018EE2DD
S1130F2091E00E94EB008B819C810E94FC018EE287
S1130F3091E00E94EB008D819E810E94FC018EE273
S1130F4091E00E94EB00FFCF5058BB27AA270E94D4
S1130F50BC070C949B080E948D0838F00E949408EA
S1130F6020F039F49F3F19F426F40C948A080EF407
S1130F70E095E7FB0C948408E92F0E94AC0858F331
S1130F80BA17620773078407950720F079F4A6F56A
S1130F900C94CE080EF4E0950B2EBA2FA02D0B0165
S1130FA0B90190010C01CA01A0011124FF27591BAA
S1130FB099F0593F50F4503E68F11A16F040A22FB0
S1130FC0232F342F4427585FF3CF46953795279521
S1130FD0A795F0405395C9F77EF41F16BA0B620B20
S1130FE0730B840BBAF09150A1F0FF0FBB1F661F67
S1130FF0771F881FC2F70EC0BA0F621F731F841FAA
S113100048F4879577956795B795F7959E3F08F0CF
S1131010B0CF9395880F08F09927EE0F9795879591
S113102008950E9418086894B1110C94CF0808958B
S11310300E94B40888F09F5798F0B92F9927B751A8
S1131040B0F0E1F0660F771F881F991F1AF0BA9568
S1131050C9F714C0B13091F00E94CE08B1E00895F0
S11310600C94CE08672F782F8827B85F39F0B93FE2
S1131070CCF3869577956795B395D9F73EF490951B
S11310808095709561957F4F8F4F9F4F0895E89499
S113109009C097FB3EF490958095709561957F4FBC
S11310A08F4F9F4F9923A9F0F92F96E9BB2793956A
S11310B0F695879577956795B795F111F8CFFAF47A
S11310C0BB0F11F460FF1BC06F5F7F4F8F4F9F4FAB
S11310D016C0882311F096E911C0772321F09EE809
S11310E0872F762F05C0662371F096E8862F70E06F
S11310F060E02AF09A95660F771F881FDAF7880F49
S11311009695879597F9089597F99F6780E870E019
S113111060E008959FEF80EC089500240A94161669
S1131120170618060906089500240A9412161306D1
S1131130140605060895092E0394000C11F488235F
S113114052F0BB0F40F4BF2B11F460FF04C06F5F7B
S11311507F4F8F4F9F4F089557FD9058440F551F51
S113116059F05F3F71F04795880F97FB991F61F025
S11311709F3F79F087950895121613061406551F9C
S1131180F2CF4695F1DF08C0161617061806991F08
S1131190F1CF86957105610508940895E894BB27FD
S11311A066277727CB0197F908950E94E8080C94E5
S11311B09B080E948D0838F00E94940820F0952323
S11311C011F00C9484080C948A0811240C94CF0810
S11311D00E94AC0870F3959FC1F3950F50E0551F22
S11311E0629FF001729FBB27F00DB11D639FAA2778
S11311F0F00DB11DAA1F649F6627B00DA11D661FC7
S1131200829F2227B00DA11D621F739FB00DA11DE7
S1131210621F839FA00D611D221F749F3327A00DA1
S1131220611D231F849F600D211D822F762F6A2F3D
S113123011249F5750409AF0F1F088234AF0EE0FA2
S1131240FF1FBB1F661F771F881F91505040A9F7CF
S11312509E3F510580F00C9484080C94CF085F3FA6
S1131260E4F3983ED4F3869577956795B795F7950B
S1131270E7959F5FC1F7FE2B880F911D9695879583
S113128097F90895A0E1B0E0E8E4F9E00C94010DC9
S11312907C011B016A01FC0117821682838181FF94
S11312A044C39E012F5F3F4F3901F7019381F10140
S11312B093FD859193FF81911F01882309F431C324
S11312C0853239F493FD859193FF81911F01853215
S11312D039F4B70190E00E949B0F56016501E5CFF8
S11312E010E0512C912CFFE1F915D8F08B3279F0F4
S11312F038F4803279F08332A1F4F92DF0612EC0F4
S11313008D3261F0803369F4292D21602DC0392D8F
S11313103260932E892D8460982E2AC0E92DE860CE
S113132015C097FC2DC020ED280F2A3088F496FEB6
S113133006C03AE0139F200D1124122F19C08AE031
S1131340589E200D1124522EE92DE0629E2E10C0CD
S11313508E3231F496FCE5C2F92DF0649F2E08C05C
S11313608C3621F4292D2068922E02C0883641F44F
S1131370F10193FD859193FF81911F018111B3CFF9
S11313809BEB980F933020F4992D9061805E07C0F9
S11313909BE9980F933008F066C1992D9F7E96FFC4
S11313A016E09F73992E853619F49064992E08C01F
S11313B0863621F4392F3068932E02C01111115052
S11313C097FE07C01C3350F444244394410E27E095
S11313D00BC0183038F027E017E005C027E09CE385
S11313E0492E02C0212F412C560184E0A80EB11CC5
S11313F0F6016081718182819381042DA3010E9491
S1131400A60E6C01F981FC87F0FF02C0F3FF06C051
S113141091FC06C092FE06C000E205C00DE203C0C6
S11314200BE201C000E08C858C7019F001115AC2E6
S11314309BC297FE10C04C0CFC85F4FF04C08A814B
S1131440813309F44A94141474F528E0241578F5CA
S113145088E0482E2CC096FC2AC0812F90E08C1581
S11314609D059CF03CEFC3163FEFD30674F0892D25
S11314708068982E0AC0E2E0F0E0EC0FFD1FE10F57
S1131480F11D8081803319F411501111F4CF97FEAE
S11314900EC044244394410E812F90E0C816D9060F
S11314A02CF41C1904C04424439401C010E097FE9A
S11314B006C01C141D0434F4C601019605C085E061
S11314C090E002C081E090E001110196112331F017
S11314D0212F30E02F5F3F4F820F931F252D30E0E7
S11314E08217930714F4581A01C0512C892D89705E
S11314F049F4552039F0B70180E290E00E949B0F37
S11315005A94F7CF002329F0B701802F90E00E946E
S11315109B0F93FC09C0552039F0B70180E390E09C
S11315200E949B0F5A94F7CF97FE4CC04601D7FEFA
S113153002C0812C912CC60188199909F301E80F86
S1131540F91FFE87ED87960124193109388B2F87FF
S1131550012F10E01195019511093FEF83169306B1
S113156029F4B7018EE290E00E949B0FC814D904BD
S11315704CF08F8598898815990524F4ED85FE85AE
S1131580818101C080E3F1E08F1A91082D853E85A9
S11315902F5F3F4F3E872D87801691062CF0B701B1
S11315A090E00E949B0FD9CFC814D90441F49A81CA
S11315B0963320F4953319F43C8534FF81E3B70165
S11315C090E04EC08A81813319F09C859F7E9C8770
S11315D0B70190E00E949B0F111105C094FC18C044
S11315E085E690E017C0B7018EE290E00E949B0F61
S11315F01E5F82E001E0080FF301E80FF11D808116
S1131600B70190E00E949B0F802F0113F3CFE6CF28
S113161085E490E0B7010E949B0FD7FC06C0C1147B
S1131620D10441F4EC85E4FF05C0D194C194D10800
S11316308DE201C08BE2B70190E00E949B0F80E332
S11316402AE0C216D1042CF08F5FFAE0CF1AD10839
S1131650F7CFB70190E00E949B0FB701C601C09677
S11316600E949B0F54C1833631F0833779F0833560
S113167009F056C020C0560132E0A30EB11CF60199
S11316808081898301E010E0630112C05601F2E019
S1131690AF0EB11CF601C080D18096FE03C0612F4D
S11316A070E002C06FEF7FEFC6010E94900F8C01C3
S11316B0F92DFF7714C0560122E0A20EB11CF601E9
S11316C0C080D18096FE03C0612F70E002C06FEF2E
S11316D07FEFC6010E947E0F8C01F92DF0689F2ECA
S11316E0F3FD1AC0852D90E008171907A8F4B70177
S11316F080E290E00E949B0F5A94F4CFF60197FC8D
S1131700859197FE81916F01B70190E00E949B0F34
S113171051105A94015011090115110579F7F7C0B8
S1131720843611F0893661F5560197FE09C024E02C
S1131730A20EB11CF60160817181828193810AC07D
S1131740F2E0AF0EB11CF60160817181072E000C2E
S1131750880B990BF92DFF769F2E97FF09C0909562
S11317608095709561957F4F8F4F9F4FF0689F2EA6
S11317702AE030E0A3010E94F90FC82EC6183FC02A
S1131780092D853721F40F7E2AE030E01DC0097F42
S11317908F3691F018F4883559F0C3C0803719F0AA
S11317A0883711F0BEC0006104FF09C0046007C09F
S11317B094FE08C0066006C028E030E005C020E1C1
S11317C030E002C020E132E0560107FF09C084E0A6
S11317D0A80EB11CF601608171818281938108C0D9
S11317E0F2E0AF0EB11CF6016081718180E090E0FF
S11317F0A3010E94F90FC82EC6180F77902E96FEEB
S11318000BC0092D0E7FC11650F494FE0AC092FC41
S113181008C0092D0E7E05C0DC2C092D03C0DC2C6C
S113182001C0D12E04FF0DC0FE01EC0DF11D80811D
S1131830803311F4097E09C002FF06C0D394D39407
S113184004C0802F867809F0D39403FD11C000FFF3
S113185006C01C2DD51480F4150D1D190DC0D5140A
S113186058F4B70180E290E00E949B0FD394F7CF25
S1131870D51410F45D1801C0512C04FF10C0B70139
S113188080E390E00E949B0F02FF17C001FD03C09C
S113189088E790E002C088E590E0B7010CC0802F93
S11318A0867859F001FF02C08BE201C080E207FD97
S11318B08DE2B70190E00E949B0FC11638F4B70186
S11318C080E390E00E949B0F1150F7CFCA94F3017C
S11318D0EC0DF11D8081B70190E00E949B0FC110B7
S11318E0F5CF15C0F4E0F51560F584E0581A93FEC1
S11318F01FC0011127C02C8523FF2AC008E610E071
S1131900392D3071932EF8018491811124C0552012
S113191009F4E4CCB70180E290E00E949B0F5A9452
S1131920F6CFF7018681978126C08FEF9FEF23C002
S1131930B70180E290E00E949B0F5A945110F8CFB7
S1131940D8CF512CB701802F90E00E949B0FD3CFAA
S11319500CE610E0D5CF91108052B70190E00E94C0
S11319609B0F0F5F1F4FCFCF23E0251510F483E0AB
S1131970BDCF512CC0CF6096E2E10C941D0DDB016C
S11319808F939F930E94EE0CBF91AF91A29F800D05
S1131990911DA39F900DB29F900D11240895052EC3
S11319A097FB1EF400940E94E60C57FD07D00E949A
S11319B0380D07FC03D04EF40C94E60C509540957A
S11319C0309521953F4F4F4F5F4F089590958095E7
S11319D0709561957F4F8F4F9F4F08950E945A0DC8
S11319E0A59F900DB49F900DA49F800D911D11246F
S11319F00895B7FF0C94EE0C0E94EE0C821B930B1F
S1131A0008952F923F924F925F926F927F928F929E
S1131A109F92AF92BF92CF92DF92EF92FF920F9379
S1131A201F93CF93DF93CDB7DEB7CA1BDB0B0FB683
S1131A30F894DEBF0FBECDBF09942A883988488840
S1131A405F846E847D848C849B84AA84B984C884D6
S1131A50DF80EE80FD800C811B81AA81B981CE0FCD
S1131A60D11D0FB6F894DEBF0FBECDBFED010895B2
S1131A70A1E21A2EAA1BBB1BFD010DC0AA1FBB1F8E
S1131A80EE1FFF1FA217B307E407F50720F0A21B00
S1131A90B30BE40BF50B661F771F881F991F1A946D
S1131AA069F760957095809590959B01AC01BD0197
S1131AB0CF010895A29FB001B39FC001A39F700DF1
S1131AC0811D1124911DB29F700D811D1124911D42
S1131AD008950F931F93CF93DF93869F8001879F71
S1131AE0100D969F100D1124C8010E94850DEC0164
S1131AF0009729F0A80160E070E00E94890FCE01F0
S1131B00DF91CF911F910F9108950F931F93CF935E
S1131B10DF938230910510F482E090E0E0914A0175
S1131B20F0914B0120E030E0A0E0B0E0309719F1F3
S1131B30408151810281138148175907C8F08417E5
S1131B40950769F4109731F012960C931297139637
S1131B501C9327C000934A0110934B0122C0211506
S1131B60310519F04217530718F49A01BD01EF012A
S1131B70DF01F801DBCF21153105F9F0281B390B02
S1131B802430310580F48A819B816115710521F02F
S1131B90FB019383828304C090934B0180934A0199
S1131BA0FE01329644C0FE01E20FF31F819391932C
S1131BB022503109398328833AC020914801309159
S1131BC04901232B41F42091020130910301309308
S1131BD04901209348012091000130910101211510
S1131BE0310541F42DB73EB74091040150910501F0
S1131BF0241B350BE0914801F0914901E217F307EA
S1131C00A0F42E1B3F0B2817390778F0AC014E5F68
S1131C105F4F2417350748F04E0F5F1F509349015B
S1131C20409348018193919302C0E0E0F0E0CF013A
S1131C30DF91CF911F910F910895CF93DF93009778
S1131C4009F481C0FC01329713821282A0914A01E7
S1131C50B0914B01109781F420813181820F931F41
S1131C6020914801309149012817390751F5F09323
S1131C704901E093480167C0ED0120E030E0CE1750
S1131C80DF0740F44A815B819E0141155105F1F063
S1131C90EA01F5CFD383C28340815181840F951F1C
S1131CA0C817D90759F488819981840F951F029622
S1131CB0918380838A819B8193838283211531055B
S1131CC029F4F0934B01E0934A013DC0E901FB8301
S1131CD0EA8349915991C40FD51FEC17FD0761F4AC
S1131CE080819181840F951F0296E90199838883ED
S1131CF0828193819B838A83E0E0F0E012968D9148
S1131D009C911397009719F0FD01DC01F7CF8D9199
S1131D109C9111979D012E5F3F4F820F931F20913D
S1131D204801309149012817390769F4309729F49B
S1131D3010924B0110924A0102C013821282B09396
S1131D404901A0934801DF91CF910895283008F00C
S1131D5027E03327DA01990F311D87FD9160009642
S1131D606105710539F432602E5F3D9330E32A95A5
S1131D70E1F708959F3F30F080387105610509F05F
S1131D803C5F3C5F3D93913008F08068911DDF9388
S1131D90CF931F930F93FF92EF92192F987F9695ED
S1131DA0E92F96959695E90FFF27E653FF4F99275C
S1131DB03327EE24FF24A701E70105900894079434
S1131DC028F4360FE71EF81E491F511D660F771FB2
S1131DD0881F991F0694A1F70590079428F4E70E2D
S1131DE0F81E491F561FC11D770F881F991F661FB4
S1131DF00694A1F70590079428F4F80E491F561F7E
S1131E00C71FD11D880F991F661F771F0694A1F75E
S1131E100590079420F4490F561FC71FD81F990F28
S1131E20661F771F881F0694A9F784911095177071
S1131E3041F0D695C79557954795F794E7941A9529
S1131E40C1F7E0E7F0E0689415901591359165913C
S1131E50959105907FE27395E118F10A430B560BB7
S1131E60C90BD009C0F7E10CF11E431F561FC91F4F
S1131E70D01D7EF4703311F48A95E6CFE8940150B6
S1131E8030F0080F0AF40027021708F4202F2395D6
S1131E90022F7A3328F079E37D932A95E9F710C06D
S1131EA07D932A9589F606949795679537951795A6
S1131EB01794E118F10A430B560BC90BD00998F09B
S1131EC023957E9173957A3308F070E37C93201305
S1131ED0B8F77E9170617D9330F0839571E37D93C3
S1131EE070E32A95E1F71124EF90FF900F911F9171
S1131EF0CF91DF91992787FD90950895FC01059076
S1131F00615070400110D8F7809590958E0F9F1FF7
S1131F100895DC0101C06D9341505040E0F70895ED
S1131F20FC016150704001900110D8F780959095A4
S1131F308E0F9F1F08950F931F93CF93DF93FB0181
S1131F40238121FD03C08FEF9FEF2CC022FF16C019
S1131F5046815781248135814217530744F4A08177
S1131F60B1819D012F5F3F4F318320838C93268164
S1131F7037812F5F3F4F3783268314C08B01EC01D9
S1131F80FB010084F185E02D0995892BE1F6D80148
S1131F9016968D919C911797019617969C938E9304
S1131FA01697CE01DF91CF911F910F910895AEE066
S1131FB0B0E0EDEDFFE00C940F0D0D891E8986E075
S1131FC08C831A8309838FEF9FE79E838D83AE01F1
S1131FD0475E5F4F6F89788DCE0101960E9442095A
S1131FE0EF81F885E00FF11F10822E96E4E00C9447
S1131FF02B0DFA01AA27283051F1203181F1E89400
S11320006F936E7F6E5F7F4F8F4F9F4FAF4FB1E0E7
S11320103ED0B4E03CD0670F781F891F9A1FA11DE2
S1132020680F791F8A1F911DA11D6A0F711D811DE3
S1132030911DA11D20D009F468943F912AE0269FA8
S113204011243019305D3193DEF6CF010895462F07
S11320504770405D4193B3E00FD0C9F7F6CF462FE8
S11320604F70405D4A3318F0495D31FD4052419351
S113207002D0A9F7EACFB4E0A6959795879577950E
S11320806795BA95C9F700976105710508959B0195
S1132090AC010A2E06945795479537952795BA951E
S11320A0C9F7620F731F841F951FA01D0895F8942C
S10520B0FFCF5C
S11320B200004C0120002530352E336600466C6F3B
S11320C2617400496E74004D3A2025643B204E3AF7
S11320D22025643B20547970653A202573200D0A2B
S11320E2007C000900097C0D0A004D617472697A52
S10B20F2204E756C610D0A001B
S9030000FC
