:100000000C9434000C9451000C9451000C94510049
:100010000C9451000C9451000C9451000C9451001C
:100020000C9451000C9451000C9451000C9451000C
:100030000C9451000C9451000C9451000C945100FC
:100040000C9451000C9451000C9451000C945100EC
:100050000C9451000C9451000C9451000C945100DC
:100060000C9451000C94510011241FBECFEFD8E026
:10007000DEBFCDBF11E0A0E0B1E0ECEDFAE102C0DF
:1000800005900D92A834B107D9F721E0A8E4B1E0BA
:1000900001C01D92AC34B207E1F70E9456060C94E1
:1000A0006C0D0C94000080E48093C00088E0809385
:1000B000C10086E08093C20087E68093C40010925E
:1000C000C5000895E0ECF0E0908195FFFDCF8093AE
:1000D000C6000895CF93DF93EC018881882331F027
:1000E00021960E94620089918111FBCFDF91CF910F
:1000F00008958F929F92AF92BF92DF92EF92FF92FC
:100100000F931F93CF93DF93CDB7DEB764970FB6EE
:10011000F894DEBF0FBECDBF9B01AC017E0184E130
:10012000E80EF11C02E110E00F2EFDECDF2EF02DA9
:100130000F2EFAE08F2E912CA12CB12CF02D2D9D9D
:10014000912D1124969596959695990F892F880F44
:10015000880F980F822F891B805DF70182937F01A2
:10016000CA01B901A50194010E94E10801501109D9
:10017000211531054105510519F001301105F9F638
:100180001C8ACE01800F911F02960E946A0064961D
:100190000FB6F894DEBF0FBECDBFDF91CF911F9198
:1001A0000F91FF90EF90DF90BF90AF909F908F9056
:1001B00008950F931F93CF93DF93CDB7DEB7649766
:1001C0000FB6F894DEBF0FBECDBF9F938F937F9382
:1001D0006F9386E091E09F938F938E010F5F1F4F87
:1001E0001F930F930E94940AC8010E946A000FB6E1
:1001F000F894DEBF0FBECDBF64960FB6F894DEBF95
:100200000FBECDBFDF91CF911F910F910895CF9277
:10021000DF92FF920F931F93CF93DF931816190667
:1002200024F51616170624F5493611F0463619F549
:10023000F42E6B018C0187E090E00E946009EC01D4
:100240001B830A83DD82CC82FE8264E070E00C9D19
:10025000C0010D9D900D1C9D900D11240E9444091C
:10026000998388838C2F9D2F08C080E090E005C083
:1002700080E090E002C080E090E0DF91CF911F919C
:100280000F91FF90DF90CF900895FC01892BA1F092
:1002900024813581629FC001639F900D729F900DF4
:1002A0001124480F591F440F551F440F551F8081BB
:1002B0009181840F951F089580E090E00895009744
:1002C000C9F0FC012681263661F0293699F40E9496
:1002D0004501FC0160817181828193810E947900D6
:1002E00008950E944501FC016081718182819381A2
:1002F0000E94D9000895AF92BF92CF92DF92EF9201
:10030000FF920F931F93CF93DF93CDB7DEB76E9716
:100310000FB6F894DEBF0FBECDBF7C01009709F485
:100320005CC0FC018681863619F083E191E002C051
:100330008DE091E09F938F93F70185818F93848166
:100340008F9383818F9382818F9387E191E09F9335
:100350008F938E010F5F1F4F1F930F930E94940A7C
:10036000C8010E946A000FB6F894DEBF0FBECDBF71
:10037000F70182819381181619069CF5C12CD12CA6
:10038000A12CB12C81E391E00E946A00F7018481E5
:100390009581181619069CF40A2D1B2D83E391E014
:1003A0000E946A00A801B601C7010E945F010F5FA9
:1003B0001F4FF70184819581081719077CF385E3A6
:1003C00091E00E946A00FFEFCF1ADF0AF7018281F5
:1003D0009381C816D906B4F204C08AE391E00E9462
:1003E0006A006E960FB6F894DEBF0FBECDBFDF91E8
:1003F000CF911F910F91FF90EF90DF90CF90BF9022
:10040000AF900895CF93DF93DC01ED91FC9130978D
:1004100059F0EC01808191810E94F50988819981D0
:100420000E94F50919821882DF91CF9108954F92A9
:100430005F926F927F928F929F92AF92BF92CF9274
:10044000EF920F9349015A01462E572E682E792EAE
:1004500026E6C216A1F129E6C2128BC0063619F0B3
:10046000093689F00DC0462E572E682E792EC3010D
:10047000B2010E94A0072B01770F6608770803C01E
:10048000412C512C320186E6E81641F029E6E212B1
:1004900011C0480C591C6A1C7B1C0CC0C501B4015E
:1004A0000E94A007CB01770FAA0BBB0B480E591E69
:1004B0006A1E7B1E642D752D862D972D5EC0063617
:1004C00071F0093621F50E94D80720E030E0A9013B
:1004D0000E943407462E572E682E792E1CC0462EB9
:1004E000572E682E792EC301B2010E94A007072E55
:1004F000000C880B990B0E94D80720E030E0A9017E
:100500000E943407462E572E682E792E04C0412CA7
:10051000512C612C712C86E6E81691F029E6E21246
:1005200023C0C501B4010E94D807242D352D462DC6
:10053000572D0E943407462E572E682E792E14C050
:10054000C501B4010E94A007072E000C880B990B6F
:100550000E94D807242D352D462D572D0E94340793
:10056000462E572E682E792E642D752D862D972DAB
:1005700004C060E070E080E090E00F91EF90CF90D9
:10058000BF90AF909F908F907F906F905F904F90B3
:1005900008954F925F926F927F928F929F92AF9247
:1005A000BF92CF92EF920F93CF93DF9349015A01FD
:1005B000462E572E682E792E26E6C216C1F129E660
:1005C000C21285C0063619F0093691F00DC0462ECC
:1005D000572E682E792EC301B2010E94A0072B016D
:1005E000770F6608770804C0412C512C32014394E0
:1005F00086E6E81661F029E6E21214C0A301920132
:10060000C501B4010E94D1082B013C010BC0C501FA
:10061000B4010E94A007DB01A30192010E940B0913
:100620002B013C01642D752D862D972D54C0063667
:1006300049F00936D1F40E94D807662E772ED82FBC
:10064000C92F17C0462E572E682E792EC301B2012E
:100650000E94A007072E000C880B990B0E94D80758
:10066000662E772ED82FC92F04C0612C712CD0E8AC
:10067000CFE386E6E81691F029E6E21223C0C50131
:10068000B4010E94D807262D372D4D2F5C2F0E94D4
:100690006408662E772ED82FC92F14C0C501B40167
:1006A0000E94A007072E000C880B990B0E94D80708
:1006B000262D372D4D2F5C2F0E946408662E772E35
:1006C000D82FC92F662D772D8D2F9C2F04C060E069
:1006D00070E080E090E0DF91CF910F91EF90CF90AC
:1006E000BF90AF909F908F907F906F905F904F9052
:1006F00008952F923F924F925F926F927F928F92C6
:100700009F92AF92BF92CF92DF92EF92FF920F93A0
:100710001F93CF93DF932C015B014A010E940202D9
:10072000A114B10409F482C08114910409F481C0B8
:10073000D50112968D919C911397F40122813381FA
:100740008217930709F078C014966D917C911597E4
:10075000248135816217730709F071C016964C9198
:10076000463621F04681463609F049E60E940701E7
:10077000FC01D2018D939C938281938118161906F6
:100780000CF444C05EC0CD2DE0E0DE2FAE01B1011F
:10079000C7010E9445013C01AE01B101C4010E94A4
:1007A00045018C01AE01B101C5010E944501D8018E
:1007B0002D913D914D915C91FC016081718182810F
:1007C0009381D7011696CC90F401E680D501169658
:1007D0000C910E941702F3016083718382839383DB
:1007E0002196D201ED90FC90F70184819581C81784
:1007F000D90764F2FFEF2F1A3F0AD201ED91FC9165
:10080000828193812816390624F01BC0212C312CBB
:10081000D12CF201E080F180D70114968D919C914A
:100820001597181619060CF4AECFE4CFE0E0F0E00F
:1008300008C0E0E0F0E005C0E0E0F0E002C0E0E089
:10084000F0E0CF01DF91CF911F910F91FF90EF90DA
:10085000DF90CF90BF90AF909F908F907F906F90E0
:100860005F904F903F902F9008952F923F924F921C
:100870005F926F927F928F929F92AF92BF92CF9230
:10088000DF92EF92FF920F931F93CF93DF9300D0ED
:1008900000D0CDB7DEB71C015B0129833A834B83BF
:1008A0005C83F02E0E940202A114B10409F46BC013
:1008B000D50116964C91463631F0B6E60B1711F07D
:1008C00049E601C046E6F501648175818281938124
:1008D0000E940701FC01D1018D939C938281938139
:1008E000181619060CF43FC050C04D2C512CA20113
:1008F000B301C8010E9445014C01A201B301C50129
:100900000E944501FC016081718182819381D8013F
:100910001696CC90EF2CF501068129813A814B8106
:100920005C810E94C902D4016D937D938D939C9349
:100930001397BFEF4B1A5B0AF10100811181D801B7
:1009400014968D919C9115974816590684F2BFEF25
:100950006B1A7B0AD101ED91FC918281938168161B
:10096000790624F012C0612C712CD12CF101008188
:100970001181D80114968D919C911597181619061E
:100980000CF4B3CFE4CFE0E0F0E0CF010F900F9094
:100990000F900F90DF91CF911F910F91FF90EF90EB
:1009A000DF90CF90BF90AF909F908F907F906F908F
:1009B0005F904F903F902F9008952F923F924F92CB
:1009C0005F926F927F928F929F92AF92BF92CF92DF
:1009D000DF92EF92FF920F931F93CF93DF93CDB7E8
:1009E000DEB729970FB6F894DEBF0FBECDBF4C011E
:1009F0005B012A010E940202A114B10409F4C7C0DC
:100A00004114510409F4C3C0D50114962D913C91B1
:100A10001597F201828193812817390709F0B7C031
:100A200016964C91463621F04681463609F049E645
:100A3000D20114966D917C911597F5018281938175
:100A40000E940701D4018D939C93FC0182819381C4
:100A5000181619060CF48AC09AC0212C312CA10159
:100A6000B3010E944501DC011D921D921D921C9252
:100A70001397F50184819581181619060CF05BC057
:100A8000D886FF81F987D4010D911C91A101B30192
:100A9000C8010E9445019A838983F8011681A1014A
:100AA00068857985C2010E9445017C014885598588
:100AB000B301C5010E944501D7012D913D914D9192
:100AC0005C91FC016081718182819381C12ED20190
:100AD0001696EC90F50106810E94C9026B837C8317
:100AE0008D839E83A101B301D4018D919C910E94BD
:100AF0004501FC016081718182819381E12E012F8A
:100B00002B813C814D815E810E941702A981BA81AF
:100B10006D937D938D939C931397E885F98531961A
:100B2000F987E887D50114968D919C911597E81760
:100B3000F9070CF4A8CFBFEF2B1A3B0AF401808110
:100B40009181DC0114962D913C9115972216330664
:100B50000CF485CFBFEF6B1A7B0AD401ED91FC91A9
:100B600082819381681679062CF011C0612C712C5A
:100B7000D12C1F82F40180819181DC0114962D918A
:100B80003C911597121613060CF467CFE3CF80E063
:100B900090E029960FB6F894DEBF0FBECDBFDF916F
:100BA000CF911F910F91FF90EF90DF90CF90BF906A
:100BB000AF909F908F907F906F905F904F903F90FD
:100BC0002F9008958F929F92AF92BF92CF92DF9213
:100BD000EF92FF920F931F93CF93DF937C016B01F2
:100BE0000E940202C114D10409F450C0D601129629
:100BF0006D917C91139716964C91169714968D9142
:100C00009C9115970E940701FC01D7018D939C933D
:100C1000828193811816190664F13AC0C82DD92D26
:100C2000AE01B801CF010E9445015C01A801BE01DF
:100C3000C6010E944501FC0180819181A281B3819E
:100C4000F50180839183A283B3832196D701ED912F
:100C5000FC9184819581C817D90714F30F5F1F4F4A
:100C6000D701ED91FC9182819381081719072CF02F
:100C70000FC000E010E0812C912CD701ED91FC9188
:100C800084819581181619064CF2E8CFE0E0F0E077
:100C9000CF01DF91CF911F910F91FF90EF90DF90E7
:100CA000CF90BF90AF909F908F900895CF93DF9398
:100CB00000D000D000D0CDB7DEB70E94530049E687
:100CC00064E070E084E090E00E9407019A838983E9
:100CD00046E664E070E084E090E00E9407019C83B7
:100CE0008B831E821D82C12CD12C76018601C60108
:100CF00083709078992324F401978C6F9F6F0196ED
:100D0000A82EB92EC80111230CF403964C0195941A
:100D10008794959487944A2D5B2DB40189819A819B
:100D20000E944501FC01C082D182E282F382A401CB
:100D30006A2D7B2D8B819C810E9445015C01B8014D
:100D4000110F880B990B0E94D807F50160837183FE
:100D500082839383FFEFCF1ADF0AEF0AFF0A80E155
:100D6000C816D104E104F10409F689819A810E9430
:100D70007B018EE291E00E946A008B819C810E943F
:100D80007B018EE291E00E946A008D819E810E942B
:100D90007B018EE291E00E946A004B815C81698157
:100DA0007A81CE0105960E9479038D819E810E94F1
:100DB0007B018EE291E00E946A0069817A8106E6F9
:100DC00020E030E040E450E4CE0105960E94350476
:100DD0008D819E810E947B018EE291E00E946A00DB
:100DE0004B815C8169817A81CE0105960E94DD0488
:100DF0008D819E810E947B018EE291E00E946A00BB
:100E00006B817C81CE0105960E94E2058D819E81D9
:100E10000E947B018EE291E00E946A00CE01019661
:100E20000E940202CE0103960E940202CE010596A4
:100E30000E94020289819A810E947B018EE291E0E8
:100E40000E946A008B819C810E947B018EE291E06E
:100E50000E946A008D819E810E947B018EE291E05A
:100E60000E946A00FFCF5058BB27AA270E944B0759
:100E70000C942A080E941C0838F00E94230820F0D5
:100E800039F49F3F19F426F40C9419080EF4E095F8
:100E9000E7FB0C941308E92F0E943B0858F3BA179C
:100EA000620773078407950720F079F4A6F50C9480
:100EB0005D080EF4E0950B2EBA2FA02D0B01B901A1
:100EC00090010C01CA01A0011124FF27591B99F0C0
:100ED000593F50F4503E68F11A16F040A22F232FCC
:100EE000342F4427585FF3CF469537952795A7951C
:100EF000F0405395C9F77EF41F16BA0B620B730BC3
:100F0000840BBAF09150A1F0FF0FBB1F661F771F33
:100F1000881FC2F70EC0BA0F621F731F841F48F4E8
:100F2000879577956795B795F7959E3F08F0B0CF71
:100F30009395880F08F09927EE0F97958795089558
:100F40000E94A7076894B1110C945E0808950E944E
:100F5000430888F09F5798F0B92F9927B751B0F000
:100F6000E1F0660F771F881F991F1AF0BA95C9F72D
:100F700014C0B13091F00E945D08B1E008950C9466
:100F80005D08672F782F8827B85F39F0B93FCCF319
:100F9000869577956795B395D9F73EF490958095AA
:100FA000709561957F4F8F4F9F4F0895E89409C0CA
:100FB00097FB3EF490958095709561957F4F8F4F8C
:100FC0009F4F9923A9F0F92F96E9BB279395F695A2
:100FD000879577956795B795F111F8CFFAF4BB0F20
:100FE00011F460FF1BC06F5F7F4F8F4F9F4F16C084
:100FF000882311F096E911C0772321F09EE8872F0E
:10100000762F05C0662371F096E8862F70E060E0C9
:101010002AF09A95660F771F881FDAF7880F969542
:10102000879597F9089597F99F6780E870E060E0E9
:1010300008959FEF80EC089500240A941616170671
:1010400018060906089500240A94121613061406B9
:1010500005060895092E0394000C11F4882352F01C
:10106000BB0F40F4BF2B11F460FF04C06F5F7F4FD4
:101070008F4F9F4F089557FD9058440F551F59F0BB
:101080005F3F71F04795880F97FB991F61F09F3F75
:1010900079F087950895121613061406551FF2CF9E
:1010A0004695F1DF08C0161617061806991FF1CFEE
:1010B00086957105610508940895E894BB27662715
:1010C0007727CB0197F908950E9477080C942A0896
:1010D0000E941C0838F00E94230820F0952311F08C
:1010E0000C9413080C94190811240C945E080E94A7
:1010F0003B0870F3959FC1F3950F50E0551F629F19
:10110000F001729FBB27F00DB11D639FAA27F00D60
:10111000B11DAA1F649F6627B00DA11D661F829F87
:101120002227B00DA11D621F739FB00DA11D621F6C
:10113000839FA00D611D221F749F3327A00D611D89
:10114000231F849F600D211D822F762F6A2F11246B
:101150009F5750409AF0F1F088234AF0EE0FFF1F9E
:10116000BB1F661F771F881F91505040A9F79E3FF5
:10117000510580F00C9413080C945E085F3FE4F373
:10118000983ED4F3869577956795B795F795E7954B
:101190009F5FC1F7FE2B880F911D9695879597F954
:1011A0000895DB018F939F930E940009BF91AF9137
:1011B000A29F800D911DA39F900DB29F900D1124B1
:1011C0000895052E97FB1EF400940E94F80857FD21
:1011D00007D00E94130907FC03D04EF40C94F808C2
:1011E00050954095309521953F4F4F4F5F4F089553
:1011F00090958095709561957F4F8F4F9F4F089583
:101200000E943509A59F900DB49F900DA49F800D5D
:10121000911D11240895B7FF0C9400090E94000944
:10122000821B930B0895A1E21A2EAA1BBB1BFD0182
:101230000DC0AA1FBB1FEE1FFF1FA217B307E407B5
:10124000F50720F0A21BB30BE40BF50B661F771F0D
:10125000881F991F1A9469F76095709580959095ED
:101260009B01AC01BD01CF010895A29FB001B39FC6
:10127000C001A39F700D811D1124911DB29F700D9F
:10128000811D1124911D08950F931F93CF93DF9318
:10129000869F8001879F100D969F100D1124C80115
:1012A0000E946009EC01009729F0A80160E070E05D
:1012B0000E948D0ACE01DF91CF911F910F91089569
:1012C000CF93DF938230910510F482E090E0E091BB
:1012D0004A01F0914B0120E030E0C0E0D0E03097CF
:1012E00011F14081518148175907C0F0481759073B
:1012F00061F482819381209719F09B838A832BC0AC
:1013000090934B0180934A0126C02115310519F0B5
:101310004217530718F49A01BE01DF01EF01028062
:10132000F381E02DDCCF2115310509F1281B390BA4
:101330002430310590F412968D919C91139761158C
:10134000710521F0FB019383828304C090934B01CC
:1013500080934A01FD01329644C0FD01E20FF31F64
:1013600081939193225031092D933C933AC020915F
:10137000480130914901232B41F420910201309121
:1013800003013093490120934801209100013091DD
:1013900001012115310541F42DB73EB740910401FB
:1013A00050910501241B350BE0914801F091490152
:1013B000E217F307A0F42E1B3F0B2817390778F02C
:1013C000AC014E5F5F4F2417350748F04E0F5F1F8B
:1013D00050934901409348018193919302C0E0E00A
:1013E000F0E0CF01DF91CF9108950F931F93CF933A
:1013F000DF93009709F48CC0FC01329713821282AC
:1014000000914A0110914B010115110581F42081D1
:101410003181820F931F2091480130914901281793
:10142000390779F5F0934901E093480171C0D8017B
:1014300040E050E0AE17BF0750F412962D913C915A
:101440001397AD012115310509F1D901F3CF9D01A4
:10145000DA013383228360817181860F971F82179F
:10146000930769F4EC0128813981260F371F2E5F1D
:101470003F4F318320838A819B8193838283452BD5
:1014800029F4F0934B01E0934A0142C01396FC9378
:10149000EE931297ED01499159919E01240F351F4A
:1014A000E217F30771F480819181840F951F0296F2
:1014B00011969C938E938281938113969C938E9325
:1014C0001297E0E0F0E0D80112968D919C9113976D
:1014D000009719F0F8018C01F6CF8D919C9198013D
:1014E0002E5F3F4F820F931F209148013091490199
:1014F0002817390769F4309729F410924B0110929C
:101500004A0102C0138212821093490100934801DC
:10151000DF91CF911F910F910895DC0101C06D9370
:1015200041505040E0F70895AEE0B0E0EAE9FAE05B
:101530000C94430D0D891E8986E08C831A830983E0
:101540008FEF9FE79E838D83AE01475E5F4F6F896C
:10155000788DCE0101960E94B70A2F813885F80157
:10156000E20FF31F10822E96E4E00C945F0DACE0C6
:10157000B0E0EDEBFAE00C94350D7C016B018A01D3
:10158000FC0117821682838181FFBDC1CE010196C5
:101590004C01F7019381F60193FD859193FF8191B1
:1015A0006F01882309F4ABC1853239F493FD85912D
:1015B00093FF81916F01853229F4B70190E00E9479
:1015C0009F0CE7CF512C312C20E02032A0F48B323D
:1015D00069F030F4803259F0833269F420612CC014
:1015E0008D3239F0803339F4216026C022602460C6
:1015F00023C0286021C027FD27C030ED380F3A30C6
:1016000078F426FF06C0FAE05F9E300D1124532EB9
:1016100013C08AE0389E300D1124332E20620CC096
:101620008E3221F426FD6BC1206406C08C3611F485
:10163000206802C0883641F4F60193FD859193FF3E
:1016400081916F018111C1CF982F9F7D9554933067
:1016500028F40C5F1F4FFFE3F9830DC0833631F090
:10166000833771F0833509F05BC022C0F8018081B7
:1016700089830E5F1F4F44244394512C540115C09D
:101680003801F2E06F0E711CF801A080B18026FFD6
:1016900003C0652D70E002C06FEF7FEFC5012C879E
:1016A0000E94940C2C0183012C852F77222E17C0C9
:1016B0003801F2E06F0E711CF801A080B18026FFA6
:1016C00003C0652D70E002C06FEF7FEFC5012C876E
:1016D0000E94890C2C012C852068222E830123FC7A
:1016E0001BC0832D90E048165906B0F4B70180E284
:1016F00090E00E949F0C3A94F4CFF50127FC85916D
:1017000027FE81915F01B70190E00E949F0C31108C
:101710003A94F1E04F1A51084114510471F7E5C0B1
:10172000843611F0893639F5F80127FF07C060814A
:101730007181828193810C5F1F4F08C0608171812C
:10174000072E000C880B990B0E5F1F4F2F76722E01
:1017500097FF09C090958095709561957F4F8F4F49
:101760009F4F2068722E2AE030E0A4010E94D70C1F
:10177000A82EA81844C0853729F42F7EB22E2AE05F
:1017800030E025C0F22FF97FBF2E8F36C1F018F45C
:10179000883579F0B4C0803719F0883721F0AFC0B0
:1017A0002F2F2061B22EB4FE0DC08B2D8460B82E79
:1017B00009C024FF0AC09F2F9660B92E06C028E0FA
:1017C00030E005C020E130E002C020E132E0F80165
:1017D000B7FE07C060817181828193810C5F1F4FCA
:1017E00006C06081718180E090E00E5F1F4FA40110
:1017F0000E94D70CA82EA818FB2DFF777F2E76FE0F
:101800000BC0372D3E7FA51450F474FE0AC072FC45
:1018100008C0372D3E7E05C0BA2C372D03C0BA2C28
:1018200001C0B52C34FF0DC0FE01EA0DF11D808111
:10183000803311F4397E09C032FF06C0B394B394EB
:1018400004C0832F867809F0B39433FD13C030FFB2
:1018500006C05A2CB31418F4530C5B18B32CB314F1
:1018600068F4B70180E290E03C870E949F0CB3943B
:101870003C85F5CFB31410F43B1801C0312C34FF74
:1018800012C0B70180E390E03C870E949F0C3C852A
:1018900032FF17C031FD03C088E790E002C088E541
:1018A00090E0B7010CC0832F867859F031FF02C059
:1018B0008BE201C080E237FD8DE2B70190E00E942B
:1018C0009F0CA51438F4B70180E390E00E949F0CB0
:1018D0005A94F7CFAA94F401EA0DF11D8081B70163
:1018E00090E00E949F0CA110F5CF332009F451CE57
:1018F000B70180E290E00E949F0C3A94F6CFF70186
:101900008681978102C08FEF9FEF2C96E2E10C94C5
:10191000510DFC010590615070400110D8F7809581
:1019200090958E0F9F1F0895FC01615070400190AB
:101930000110D8F7809590958E0F9F1F08950F93F3
:101940001F93CF93DF93FB01238121FD03C08FEF12
:101950009FEF28C022FF16C0468157812481358120
:101960004217530744F4A081B1819D012F5F3F4F7F
:10197000318320838C93268137812F5F3F4F3783BC
:10198000268310C0EB01092F182F0084F185E02D6C
:101990000995892BE1F68E819F8101969F838E8325
:1019A000812F902FDF91CF911F910F910895FA0110
:1019B000AA27283051F1203181F1E8946F936E7F8E
:1019C0006E5F7F4F8F4F9F4FAF4FB1E03ED0B4E07F
:1019D0003CD0670F781F891F9A1FA11D680F791FC0
:1019E0008A1F911DA11D6A0F711D811D911DA11DD1
:1019F00020D009F468943F912AE0269F11243019E1
:101A0000305D3193DEF6CF010895462F4770405D7B
:101A10004193B3E00FD0C9F7F6CF462F4F70405D2A
:101A20004A3318F0495D31FD4052419302D0A9F785
:101A3000EACFB4E0A6959795879577956795BA957F
:101A4000C9F700976105710508959B01AC010A2E45
:101A500006945795479537952795BA95C9F7620F1C
:101A6000731F841F951FA01D08952F923F924F92C0
:101A70005F926F927F928F929F92AF92BF92CF921E
:101A8000DF92EF92FF920F931F93CF93DF93CDB727
:101A9000DEB7CA1BDB0B0FB6F894DEBF0FBECDBF9F
:101AA00009942A88398848885F846E847D848C8470
:101AB0009B84AA84B984C884DF80EE80FD800C8179
:101AC0001B81AA81B981CE0FD11D0FB6F894DEBF5C
:0C1AD0000FBECDBFED010895F894FFCFCC
:101ADC0000004C0120002530352E336600466C6F1B
:101AEC00617400496E74004D3A2025643B204E3AD7
:101AFC002025643B20547970653A202573200D0A0B
:101B0C00007C000900097C0D0A004D617472697A31
:081B1C00204E756C610D0A00FA
:00000001FF
