:100000000C94B5000C94D2000C94D2000C94D20045
:100010000C94D2000C94D2000C94D2000C94D20018
:100020000C94D2000C94D2000C94D2000C94D20008
:100030000C94D2000C94D2000C94D2000C94D200F8
:100040000C94D2000C94D2000C94D2000C94D200E8
:100050000C94D2000C94D2000C94D2000C94D200D8
:100060000C94D2000C94D2006E616E00696E660032
:1000700000407A10F35A00A0724E18090010A5D45F
:10008000E80000E87648170000E40B54020000CABC
:100090009A3B000000E1F505000080969800000002
:1000A00040420F000000A086010000001027000061
:1000B0000000E803000000006400000000000A00E7
:1000C000000000000100000000002C76D888DC67EA
:1000D0004F0823DFC1DFAE59E1B1B796E5E3E45342
:1000E000C63AE651997696E8E6C28426EB898C9B5F
:1000F00062ED407C6FFCEFBC9C9F40F2BAA56FA5FF
:10010000F490055A2AF75C936B6CF9676DC11BFC80
:10011000E0E40D47FEF520E6B500D0ED902E03009B
:10012000943577050080841E080000204E0A0000E8
:1001300000C80C333333330F986E12831141EF8DA7
:100140002114893BE65516CFFEE6DB18D1844B38E7
:100150001BF77C1D901DA4BBE424203284725E2218
:100160008100C9F124ECA1E53D2711241FBECFEF8A
:10017000D8E0DEBFCDBF11E0A0E0B1E0E2EEF0E2FA
:1001800002C005900D92A834B107D9F721E0A8E488
:10019000B1E001C01D92AC34B207E1F70E94D7066E
:1001A0000C946F100C94000080E48093C00088E0F1
:1001B0008093C10086E08093C20087E68093C400EC
:1001C0001092C5000895E0ECF0E0908195FFFDCF1E
:1001D0008093C6000895CF93DF93EC018881882334
:1001E00031F021960E94E30089918111FBCFDF91CC
:1001F000CF9108958F929F92AF92BF92DF92EF922C
:10020000FF920F931F93CF93DF93CDB7DEB7649721
:100210000FB6F894DEBF0FBECDBF9B01AC017E01CF
:1002200084E1E80EF11C02E110E00F2EFDECDF2E60
:10023000F02D0F2EFAE08F2E912CA12CB12CF02D49
:100240002D9D912D1124969596959695990F892F10
:10025000880F880F980F822F891B805DF70182938A
:100260007F01CA01B901A50194010E94DE0C015071
:100270001109211531054105510519F0013011050C
:10028000F9F61C8ACE01800F911F02960E94EB00A6
:1002900064960FB6F894DEBF0FBECDBFDF91CF914D
:1002A0001F910F91FF90EF90DF90BF90AF909F90C4
:1002B0008F9008950F931F93CF93DF93CDB7DEB741
:1002C00064970FB6F894DEBF0FBECDBF9F938F9398
:1002D0007F936F9386E091E09F938F938E010F5FE2
:1002E0001F4F1F930F930E94EE0FC8010E94EB0057
:1002F0000FB6F894DEBF0FBECDBF64960FB6F8946C
:10030000DEBF0FBECDBFDF91CF911F910F9108953A
:10031000CF92DF92FF920F931F93CF93DF93181624
:10032000190624F51616170624F5493611F0463637
:1003300019F5F42E6B018C0187E090E00E94940D7A
:10034000EC011B830A83DD82CC82FE8264E070E0D4
:100350000C9DC0010D9D900D1C9D900D11240E94BF
:10036000780D998388838C2F9D2F08C080E090E0C2
:1003700005C080E090E002C080E090E0DF91CF9186
:100380001F910F91FF90DF90CF900895FC01892B72
:10039000A1F024813581629FC001639F900D729FFF
:1003A000900D1124480F591F440F551F440F551F1E
:1003B00080819181840F951F089580E090E00895D9
:1003C0000097C9F0FC012681263661F0293699F4A0
:1003D0000E94C601FC0160817181828193810E942B
:1003E000FA0008950E94C601FC016081718182813A
:1003F00093810E945A010895AF92BF92CF92DF92EB
:10040000EF92FF920F931F93CF93DF93CDB7DEB799
:100410006E970FB6F894DEBF0FBECDBF7C0100977C
:1004200009F45CC0FC018681863619F083E191E015
:1004300002C08DE091E09F938F93F70185818F93A8
:1004400084818F9383818F9382818F9387E191E061
:100450009F938F938E010F5F1F4F1F930F930E94E7
:10046000EE0FC8010E94EB000FB6F894DEBF0FBE7E
:10047000CDBFF70182819381181619069CF5C12C16
:10048000D12CA12CB12C81E391E00E94EB00F7016B
:1004900084819581181619069CF40A2D1B2D83E37F
:1004A00091E00E94EB00A801B601C7010E94E001A3
:1004B0000F5F1F4FF70184819581081719077CF39F
:1004C00085E391E00E94EB00FFEFCF1ADF0AF7010E
:1004D00082819381C816D906B4F204C08AE391E000
:1004E0000E94EB006E960FB6F894DEBF0FBECDBF34
:1004F000DF91CF911F910F91FF90EF90DF90CF9000
:10050000BF90AF900895CF93DF93DC01ED91FC9104
:10051000309759F0EC01808191810E94290E8881E9
:1005200099810E94290E19821882DF91CF91089536
:100530004F925F926F927F928F929F92AF92BF92F3
:10054000CF92EF920F9349015A01462E572E682EF3
:10055000792E26E6C216A1F129E6C2128BC0063614
:1005600019F0093689F00DC0462E572E682E792EC7
:10057000C301B2010E9421082B01770F660877089A
:1005800003C0412C512C320186E6E81641F029E6E1
:10059000E21211C0480C591C6A1C7B1C0CC0C5011E
:1005A000B4010E942108CB01770FAA0BBB0B480EA8
:1005B000591E6A1E7B1E642D752D862D972D5EC0DB
:1005C000063671F0093621F50E94590820E030E026
:1005D000A9010E94B507462E572E682E792E1CC001
:1005E000462E572E682E792EC301B2010E94210893
:1005F000072E000C880B990B0E94590820E030E070
:10060000A9010E94B507462E572E682E792E04C0E8
:10061000412C512C612C712C86E6E81691F029E6CC
:10062000E21223C0C501B4010E945908242D352DC2
:10063000462D572D0E94B507462E572E682E792E2F
:1006400014C0C501B4010E942108072E000C880BBC
:10065000990B0E945908242D352D462D572D0E94A7
:10066000B507462E572E682E792E642D752D862DB2
:10067000972D04C060E070E080E090E00F91EF9073
:10068000CF90BF90AF909F908F907F906F905F9032
:100690004F9008954F925F926F927F928F929F92A8
:1006A000AF92BF92CF92EF920F93CF93DF93490116
:1006B0005A01462E572E682E792E26E6C216C1F113
:1006C00029E6C21285C0063619F0093691F00DC030
:1006D000462E572E682E792EC301B2010E942108A2
:1006E0002B01770F6608770804C0412C512C32018A
:1006F000439486E6E81661F029E6E21214C0A301ED
:100700009201C501B4010E94CE0C2B013C010BC02B
:10071000C501B4010E942108DB01A30192010E94DE
:10072000080D2B013C01642D752D862D972D54C08D
:10073000063649F00936D1F40E945908662E772E04
:10074000D82FC92F17C0462E572E682E792EC301D9
:10075000B2010E942108072E000C880B990B0E9401
:100760005908662E772ED82FC92F04C0612C712C02
:10077000D0E8CFE386E6E81691F029E6E21223C03E
:10078000C501B4010E945908262D372D4D2F5C2F2D
:100790000E94E508662E772ED82FC92F14C0C501F8
:1007A000B4010E942108072E000C880B990B0E94AF
:1007B0005908262D372D4D2F5C2F0E94E508662EF7
:1007C000772ED82FC92F662D772D8D2F9C2F04C003
:1007D00060E070E080E090E0DF91CF910F91EF90CA
:1007E000CF90BF90AF909F908F907F906F905F90D1
:1007F0004F9008952F923F924F925F926F927F9207
:100800008F929F92AF92BF92CF92DF92EF92FF9220
:100810000F931F93CF93DF932C015B014A010E943A
:100820008302A114B10409F482C08114910409F473
:1008300081C0D50112968D919C911397F40122816C
:1008400033818217930709F078C014966D917C91DB
:100850001597248135816217730709F071C01696C8
:100860004C91463621F04681463609F049E60E9411
:100870008801FC01D2018D939C938281938118168B
:1008800019060CF444C05EC0CD2DE0E0DE2FAE01B1
:10089000B101C7010E94C6013C01AE01B101C40112
:1008A0000E94C6018C01AE01B101C5010E94C601C2
:1008B000D8012D913D914D915C91FC016081718138
:1008C00082819381D7011696CC90F401E680D50100
:1008D00016960C910E949802F301608371838283C3
:1008E00093832196D201ED90FC90F701848195814C
:1008F000C817D90764F2FFEF2F1A3F0AD201ED9112
:10090000FC91828193812816390624F01BC0212C8A
:10091000312CD12CF201E080F180D70114968D9119
:100920009C911597181619060CF4AECFE4CFE0E0B1
:10093000F0E008C0E0E0F0E005C0E0E0F0E002C078
:10094000E0E0F0E0CF01DF91CF911F910F91FF9098
:10095000EF90DF90CF90BF90AF909F908F907F905F
:100960006F905F904F903F902F9008952F923F92FD
:100970004F925F926F927F928F929F92AF92BF92AF
:10098000CF92DF92EF92FF920F931F93CF93DF935B
:1009900000D000D0CDB7DEB71C015B0129833A83BC
:1009A0004B835C83F02E0E948302A114B10409F4EE
:1009B0006BC0D50116964C91463631F0B6E60B1752
:1009C00011F049E601C046E6F50164817581828136
:1009D00093810E948801FC01D1018D939C938281B7
:1009E0009381181619060CF43FC050C04D2C512CA1
:1009F000A201B301C8010E94C6014C01A201B301CA
:100A0000C5010E94C601FC016081718182819381D0
:100A1000D8011696CC90EF2CF501068129813A81F8
:100A20004B815C810E944A03D4016D937D938D9329
:100A30009C931397BFEF4B1A5B0AF1010081118160
:100A4000D80114968D919C9115974816590684F2F9
:100A5000BFEF6B1A7B0AD101ED91FC9182819381EA
:100A60006816790624F012C0612C712CD12CF1018A
:100A700000811181D80114968D919C9115971816BB
:100A800019060CF4B3CFE4CFE0E0F0E0CF010F9013
:100A90000F900F900F90DF91CF911F910F91FF90CA
:100AA000EF90DF90CF90BF90AF909F908F907F900E
:100AB0006F905F904F903F902F9008952F923F92AC
:100AC0004F925F926F927F928F929F92AF92BF925E
:100AD000CF92DF92EF92FF920F931F93CF93DF930A
:100AE000CDB7DEB729970FB6F894DEBF0FBECDBFE6
:100AF0004C015B012A010E948302A114B10409F494
:100B0000C7C04114510409F4C3C0D50114962D91F6
:100B10003C911597F201828193812817390709F0DA
:100B2000B7C016964C91463621F04681463609F0FC
:100B300049E6D20114966D917C911597F501828159
:100B400093810E948801D4018D939C93FC01828142
:100B50009381181619060CF48AC09AC0212C312CE6
:100B6000A101B3010E94C601DC011D921D921D92DC
:100B70001C921397F50184819581181619060CF0C3
:100B80005BC0D886FF81F987D4010D911C91A1012A
:100B9000B301C8010E94C6019A838983F8011681B6
:100BA000A10168857985C2010E94C6017C01488542
:100BB0005985B301C5010E94C601D7012D913D9110
:100BC0004D915C91FC016081718182819381C12E84
:100BD000D2011696EC90F50106810E944A036B83C0
:100BE0007C838D839E83A101B301D4018D919C915F
:100BF0000E94C601FC016081718182819381E12E96
:100C0000012F2B813C814D815E810E949802A98138
:100C1000BA816D937D938D939C931397E885F985A5
:100C20003196F987E887D50114968D919C91159797
:100C3000E817F9070CF4A8CFBFEF2B1A3B0AF40111
:100C400080819181DC0114962D913C91159722169B
:100C500033060CF485CFBFEF6B1A7B0AD401ED91FC
:100C6000FC9182819381681679062CF011C0612C69
:100C7000712CD12C1F82F40180819181DC011496AA
:100C80002D913C911597121613060CF467CFE3CF04
:100C900080E090E029960FB6F894DEBF0FBECDBF7E
:100CA000DF91CF911F910F91FF90EF90DF90CF9048
:100CB000BF90AF909F908F907F906F905F904F907C
:100CC0003F902F9008958F929F92AF92BF92CF92B4
:100CD000DF92EF92FF920F931F93CF93DF937C01EC
:100CE0006B010E948302C114D10409F450C0D601E3
:100CF00012966D917C91139716964C9116971496B7
:100D00008D919C9115970E948801FC01D7018D93CC
:100D10009C93828193811816190664F13AC0C82DFC
:100D2000D92DAE01B801CF010E94C6015C01A80116
:100D3000BE01C6010E94C601FC0180819181A28191
:100D4000B381F50180839183A283B3832196D70178
:100D5000ED91FC9184819581C817D90714F30F5F39
:100D60001F4FD701ED91FC918281938108171907DC
:100D70002CF00FC000E010E0812C912CD701ED91F8
:100D8000FC9184819581181619064CF2E8CFE0E0B9
:100D9000F0E0CF01DF91CF911F910F91FF90EF9085
:100DA000DF90CF90BF90AF909F908F900895CF939A
:100DB000DF9300D000D000D0CDB7DEB70E94D400C2
:100DC00049E664E070E084E090E00E9488019A8344
:100DD000898346E664E070E084E090E00E94880148
:100DE0009C838B831E821D82C12CD12C76018601AF
:100DF000C60183709078992324F401978C6F9F6FBC
:100E00000196A82EB92EC80111230CF403964C01AB
:100E100095948794959487944A2D5B2DB40189818C
:100E20009A810E94C601FC01C082D182E282F382D3
:100E3000A4016A2D7B2D8B819C810E94C6015C01DF
:100E4000B801110F880B990B0E945908F5016083B6
:100E5000718382839383FFEFCF1ADF0AEF0AFF0AC1
:100E600080E1C816D104E104F10409F689819A8170
:100E70000E94FC018EE291E00E94EB008B819C813C
:100E80000E94FC018EE291E00E94EB008D819E8128
:100E90000E94FC018EE291E00E94EB004B815C819C
:100EA00069817A81CE0105960E94FA038D819E8127
:100EB0000E94FC018EE291E00E94EB0069817A8140
:100EC00006E620E030E040E450E4CE0105960E94C2
:100ED000B6048D819E810E94FC018EE291E00E9409
:100EE000EB004B815C8169817A81CE0105960E947D
:100EF0005E058D819E810E94FC018EE291E00E9440
:100F0000EB006B817C81CE0105960E9463068D818A
:100F10009E810E94FC018EE291E00E94EB00CE01D6
:100F200001960E948302CE0103960E948302CE01A5
:100F300005960E94830289819A810E94FC018EE2BB
:100F400091E00E94EB008B819C810E94FC018EE26B
:100F500091E00E94EB008D819E810E94FC018EE257
:100F600091E00E94EB00FFCF5058BB27AA270E94B8
:100F7000CC070C94AB080E949D0838F00E94A4088E
:100F800020F039F49F3F19F426F40C949A080EF4DB
:100F9000E095E7FB0C949408E92F0E94BC0858F3F5
:100FA000BA17620773078407950720F079F4A6F54E
:100FB0000C94DE080EF4E0950B2EBA2FA02D0B0139
:100FC000B90190010C01CA01A0011124FF27591B8E
:100FD00099F0593F50F4503E68F11A16F040A22F94
:100FE000232F342F4427585FF3CF46953795279505
:100FF000A795F0405395C9F77EF41F16BA0B620B04
:10100000730B840BBAF09150A1F0FF0FBB1F661F4A
:10101000771F881FC2F70EC0BA0F621F731F841F8D
:1010200048F4879577956795B795F7959E3F08F0B3
:10103000B0CF9395880F08F09927EE0F9795879575
:1010400008950E9428086894B1110C94DF0808954F
:101050000E94C40888F09F5798F0B92F9927B7517C
:10106000B0F0E1F0660F771F881F991F1AF0BA954C
:10107000C9F714C0B13091F00E94DE08B1E00895C4
:101080000C94DE08672F782F8827B85F39F0B93FB6
:10109000CCF3869577956795B395D9F73EF49095FF
:1010A0008095709561957F4F8F4F9F4F0895E8947D
:1010B00009C097FB3EF490958095709561957F4FA0
:1010C0008F4F9F4F9923A9F0F92F96E9BB2793954E
:1010D000F695879577956795B795F111F8CFFAF45E
:1010E000BB0F11F460FF1BC06F5F7F4F8F4F9F4F8F
:1010F00016C0882311F096E911C0772321F09EE8ED
:10110000872F762F05C0662371F096E8862F70E052
:1011100060E02AF09A95660F771F881FDAF7880F2C
:101120009695879597F9089597F99F6780E870E0FD
:1011300060E008959FEF80EC089500240A9416164D
:10114000170618060906089500240A9412161306B5
:10115000140605060895092E0394000C11F4882343
:1011600052F0BB0F40F4BF2B11F460FF04C06F5F5F
:101170007F4F8F4F9F4F089557FD9058440F551F35
:1011800059F05F3F71F04795880F97FB991F61F009
:101190009F3F79F087950895121613061406551F80
:1011A000F2CF4695F1DF08C0161617061806991FEC
:1011B000F1CF86957105610508940895E894BB27E1
:1011C00066277727CB0197F908950E94F8080C94B9
:1011D000AB080E949D0838F00E94A40820F09523D7
:1011E00011F00C9494080C949A0811240C94DF08C4
:1011F0000E94BC0870F3959FC1F3950F50E0551FF6
:10120000629FF001729FBB27F00DB11D639FAA275B
:10121000F00DB11DAA1F649F6627B00DA11D661FAA
:10122000829F2227B00DA11D621F739FB00DA11DCB
:10123000621F839FA00D611D221F749F3327A00D85
:10124000611D231F849F600D211D822F762F6A2F21
:1012500011249F5750409AF0F1F088234AF0EE0F86
:10126000FF1FBB1F661F771F881F91505040A9F7B3
:101270009E3F510580F00C9494080C94DF085F3F6A
:10128000E4F3983ED4F3869577956795B795F795EF
:10129000E7959F5FC1F7FE2B880F911D9695879567
:1012A00097F90895A3E1B0E0E8E5F9E00C94100D9A
:1012B0006C014B012A01FC0117821682838181FF98
:1012C00043C3AE014F5F5F4F3A01F6019381F401D2
:1012D00093FD859193FF81914F01882309F430C3D9
:1012E000853239F493FD859193FF81914F018532C9
:1012F00039F4B60190E00E94B60F52012501E5CF06
:1013000010E0F12C20E02032A0F48B3269F030F4B0
:10131000803259F0833269F420612CC08D3239F06B
:10132000803339F4216026C02260246023C0286005
:1013300021C027FD27C030ED380F3A3078F426FF62
:1013400006C0FAE01F9F300D1124132F13C04AE08E
:10135000F49E300D1124F32E20620CC08E3221F445
:1013600026FDEEC2206406C08C3611F4206802C04F
:10137000883641F4F40193FD859193FF81914F01EB
:101380008111C1CF9BEB980F933018F42061805EE0
:1013900006C09BE9980F933008F071C12F7E26FF9D
:1013A00016E02F73322E853619F42064322E08C0D1
:1013B000863621F4F22FF0683F2E02C01111115031
:1013C00037FE07C01C3350F4EE24E394E10E27E00F
:1013D0000BC0183038F027E017E005C027E04CE3D9
:1013E000E42E02C0212FE12C520144E0A40EB11CD6
:1013F000F20160817181828193810E2DA3010E948F
:10140000C10E2C01098100FF02C003FF07C031FC9F
:1014100008C032FE09C030E2232E07C02DE2222E82
:1014200004C09BE2292E01C0212C802F8C7019F062
:10143000211068C2A8C237FE0FC0E40C04FF04C02C
:101440008A81813309F4EA941E1474F5F8E0FE15DC
:1014500078F588E0E82E2CC036FC2AC0812F90E079
:10146000841595059CF02CEF42162FEF520674F070
:10147000432D4068342E0AC0E2E0F0E0EC0FFD1F7F
:10148000E10FF11D8081803319F411501111F4CF57
:1014900037FE0EC0EE24E394E10E812F90E0481653
:1014A00059062CF4141904C0EE24E39401C010E092
:1014B00037FE06C01414150434F4C201019605C0A9
:1014C00085E090E002C081E090E0211001961123B8
:1014D00031F0212F30E02F5F3F4F820F931F2F2DD0
:1014E00030E08217930714F4F81A01C0F12C832D11
:1014F000897049F4FF2039F0B60180E290E00E9443
:10150000B60FFA94F7CF222029F0B601822D90E091
:101510000E94B60F33FC09C0FF2039F0B60180E30A
:1015200090E00E94B60FFA94F7CF37FE5AC0942D80
:10153000852D57FE02C090E080E0292E382E20E055
:1015400030E0A2014E1951095D874C87A201421972
:1015500053095F874E87612F70E044275527461B4C
:10156000570B598B488B5FEF2516350649F4B601AA
:101570008EE290E02A8B3B8B0E94B60F3B892A8932
:10158000421453046CF04C855D854215530544F4B8
:10159000EE85FF85E20FF31FE60DF71D818101C087
:1015A00080E351E0251A31082F5F3F4F4889598960
:1015B000241635064CF0B60190E02A8B3B8B0E9436
:1015C000B60F2A893B89CFCF2414350439F49A8188
:1015D000963318F4953311F404FF81E3B60190E0DB
:1015E0004BC08A81813309F00F7EB60190E00E94E2
:1015F000B60F111105C034FC18C085E690E017C085
:10160000B6018EE290E00E94B60F82E0EE24E394F1
:10161000E80EF301E80FF11D8081B60190E00E9411
:10162000B60F11508E2D91F7E6CF85E490E0B6010C
:101630000E94B60F57FC05C04114510439F404FF51
:1016400005C05194419451088DE201C08BE2B6016E
:1016500090E00E94B60F80E39AE0491651042CF006
:101660008F5F5AE0451A5108F7CFB60190E00E940B
:10167000B60FB601C201C0960E94B60F57C183369D
:1016800031F0833779F0833509F058C021C0520119
:10169000E2E0AE0EB11CF2018081898301E010E02E
:1016A000230114C05201F2E0AF0EB11CF2014080E0
:1016B000518026FF03C0612F70E002C06FEF7FEF03
:1016C000C2012A8B0E94AB0F8C012A892F7715C08B
:1016D0005201F2E0AF0EB11CF2014080518026FFB2
:1016E00003C0612F70E002C06FEF7FEFC2012A8B51
:1016F0000E94990F8C012A892068322E23FD1AC07E
:101700008F2D90E008171907A8F4B60180E290E049
:101710000E94B60FFA94F4CFF20137FC859137FEA0
:1017200081912F01B60190E00E94B60FF110FA945A
:10173000015011090115110579F7F8C0843611F02F
:10174000893659F5520127FF09C0F4E0AF0EB11CEC
:10175000F20160817181828193810AC0F2E0AF0E53
:10176000B11CF20160817181072E000C880B990B6E
:101770002F76322E97FF09C09095809570956195D0
:101780007F4F8F4F9F4F2068322E2AE030E0A30119
:101790000E941110E82EE6183FC0022F853721F471
:1017A0000F7E2AE030E01DC0097F8F3691F018F4DB
:1017B000883559F0C5C0803719F0883711F0C0C09E
:1017C000006104FF09C0046007C024FF08C0066070
:1017D00006C028E030E005C020E130E002C020E192
:1017E00032E0520107FF09C0F4E0AF0EB11CF20174
:1017F000608171818281938108C0F2E0AF0EB11CDB
:10180000F2016081718180E090E0A3010E941110DB
:10181000E82EE6180F77302E36FE0BC0332D3E7FB4
:10182000E11650F434FE0AC032FC08C0332D3E7E6F
:1018300005C00E2D332D03C00E2D01C0012F34FF26
:101840000CC0FE01EE0DF11D8081803311F4397E54
:1018500008C032FF05C00E5F04C0832F867809F0F0
:101860000F5F33FD13C030FF06C01E2D0F1518F497
:101870001F0D101B0F2D0F1568F4B60180E290E0CC
:101880003B8B0E94B60F0F5F3B89F5CF0F1510F40D
:10189000F01A01C0F12C34FF12C0B60180E390E0D1
:1018A0003B8B0E94B60F3B8932FF17C031FD03C04E
:1018B00088E790E002C088E590E0B6010CC0832F75
:1018C000867859F031FF02C08BE201C080E237FD1B
:1018D0008DE2B60190E00E94B60FE11638F4B60131
:1018E00080E390E00E94B60F1150F7CFEA94F30125
:1018F000EE0DF11D8081B60190E00E94B60FE1105F
:10190000F5CF14C0F4E0FF1558F584E0F81A33FE63
:101910001EC0211026C003FF2AC008E610E0F32DE8
:10192000F0713F2EF8018491811124C0FF2009F449
:10193000E5CCB60180E290E00E94B60FFA94F6CFB3
:10194000F6018681978126C08FEF9FEF23C0B601F5
:1019500080E290E00E94B60FFA94F110F8CFD9CF50
:10196000F12CB601822D90E00E94B60FD4CF0CE688
:1019700010E0D5CF31108052B60190E00E94B60F32
:101980000F5F1F4FCFCF23E02F1510F483E0BECFA2
:10199000F12CC1CF6396E2E10C942C0DDB018F9307
:1019A0009F930E94FD0CBF91AF91A29F800D911D4E
:1019B000A39F900DB29F900D11240895052E97FBC3
:1019C0001EF400940E94F50C57FD07D00E94470DAD
:1019D00007FC03D04EF40C94F50C509540953095CF
:1019E00021953F4F4F4F5F4F08959095809570958B
:1019F00061957F4F8F4F9F4F08950E94690DA59F5E
:101A0000900DB49F900DA49F800D911D11240895F9
:101A1000B7FF0C94FD0C0E94FD0C821B930B0895E4
:101A20002F923F924F925F926F927F928F929F92EE
:101A3000AF92BF92CF92DF92EF92FF920F931F93DC
:101A4000CF93DF93CDB7DEB7CA1BDB0B0FB6F8948D
:101A5000DEBF0FBECDBF09942A88398848885F84CD
:101A60006E847D848C849B84AA84B984C884DF803E
:101A7000EE80FD800C811B81AA81B981CE0FD11D22
:101A80000FB6F894DEBF0FBECDBFED010895A1E201
:101A90001A2EAA1BBB1BFD010DC0AA1FBB1FEE1FE8
:101AA000FF1FA217B307E407F50720F0A21BB30B33
:101AB000E40BF50B661F771F881F991F1A9469F7AF
:101AC00060957095809590959B01AC01BD01CF010B
:101AD0000895A29FB001B39FC001A39F700D811D07
:101AE0001124911DB29F700D811D1124911D089527
:101AF0000F931F93CF93DF93869F8001879F100DD5
:101B0000969F100D1124C8010E94940DEC010097BE
:101B100029F0A80160E070E00E94A40FCE01DF91DF
:101B2000CF911F910F910895CF93DF93823091054C
:101B300010F482E090E0E0914A01F0914B0120E046
:101B400030E0C0E0D0E0309711F14081518148177A
:101B50005907C0F04817590761F482819381209793
:101B600019F09B838A832BC090934B0180934A0189
:101B700026C02115310519F04217530718F49A01B0
:101B8000BE01DF01EF010280F381E02DDCCF2115E2
:101B9000310509F1281B390B2430310590F41296D8
:101BA0008D919C9113976115710521F0FB01938331
:101BB000828304C090934B0180934A01FD013296C9
:101BC00044C0FD01E20FF31F81939193225031092C
:101BD0002D933C933AC02091480130914901232B29
:101BE00041F4209102013091030130934901209387
:101BF000480120910001309101012115310541F486
:101C00002DB73EB74091040150910501241B350BBF
:101C1000E0914801F0914901E217F307A0F42E1B6F
:101C20003F0B2817390778F0AC014E5F5F4F241740
:101C3000350748F04E0F5F1F50934901409348010C
:101C40008193919302C0E0E0F0E0CF01DF91CF916A
:101C500008950F931F93CF93DF93009709F48CC0DF
:101C6000FC0132971382128200914A0110914B01BC
:101C70000115110581F420813181820F931F20917C
:101C80004801309149012817390779F5F093490146
:101C9000E093480171C0D80140E050E0AE17BF07A3
:101CA00050F412962D913C911397AD0121153105F9
:101CB00009F1D901F3CF9D01DA01338322836081D9
:101CC0007181860F971F8217930769F4EC012881B1
:101CD0003981260F371F2E5F3F4F318320838A8142
:101CE0009B8193838283452B29F4F0934B01E093EE
:101CF0004A0142C01396FC93EE931297ED0149916D
:101D000059919E01240F351FE217F30771F480816A
:101D10009181840F951F029611969C938E938281D8
:101D2000938113969C938E931297E0E0F0E0D80194
:101D300012968D919C911397009719F0F8018C01E0
:101D4000F6CF8D919C9198012E5F3F4F820F931F8C
:101D500020914801309149012817390769F43097DB
:101D600029F410924B0110924A0102C01382128290
:101D70001093490100934801DF91CF911F910F917A
:101D80000895283008F027E03327DA01990F311D34
:101D900087FD916000966105710539F432602E5F10
:101DA0003D9330E32A95E1F708959F3F30F0803866
:101DB0007105610509F03C5F3C5F3D93913008F08F
:101DC0008068911DDF93CF931F930F93FF92EF9243
:101DD000192F987F9695E92F96959695E90FFF27ED
:101DE000E653FF4F99273327EE24FF24A701E7018D
:101DF00005900894079428F4360FE71EF81E491F33
:101E0000511D660F771F881F991F0694A1F7059033
:101E1000079428F4E70EF81E491F561FC11D770FBF
:101E2000881F991F661F0694A1F70590079428F450
:101E3000F80E491F561FC71FD11D880F991F661F17
:101E4000771F0694A1F70590079420F4490F561FB9
:101E5000C71FD81F990F661F771F881F0694A9F701
:101E600084911095177041F0D695C7955795479571
:101E7000F794E7941A95C1F7E0E7F0E068941590BD
:101E8000159135916591959105907FE27395E118D3
:101E9000F10A430B560BC90BD009C0F7E10CF11E38
:101EA000431F561FC91FD01D7EF4703311F48A954D
:101EB000E6CFE894015030F0080F0AF4002702172B
:101EC00008F4202F2395022F7A3328F079E37D93AD
:101ED0002A95E9F710C07D932A9589F6069497957F
:101EE0006795379517951794E118F10A430B560B30
:101EF000C90BD00998F023957E9173957A3308F039
:101F000070E37C932013B8F77E9170617D9330F07D
:101F1000839571E37D9370E32A95E1F71124EF90A7
:101F2000FF900F911F91CF91DF91992787FD909599
:101F30000895FC010590615070400110D8F780951C
:101F400090958E0F9F1F0895DC0101C06D93415045
:101F50005040E0F70895FC0161507040019001107D
:101F6000D8F7809590958E0F9F1F08950F931F931C
:101F7000CF93DF93FB01238121FD03C08FEF9FEF00
:101F800028C022FF16C0468157812481358142171F
:101F9000530744F4A081B1819D012F5F3F4F3183EE
:101FA00020838C93268137812F5F3F4F3783268391
:101FB00010C0EB01092F182F0084F185E02D099541
:101FC000892BE1F68E819F8101969F838E83812FDD
:101FD000902FDF91CF911F910F910895AEE0B0E067
:101FE000E4EFFFE00C941E0D0D891E8986E08C83C2
:101FF0001A8309838FEF9FE79E838D83AE01475E2F
:102000005F4F6F89788DCE0101960E9452092F8112
:102010003885F801E20FF31F10822E96E4E00C944D
:102020003A0DFA01AA27283051F1203181F1E894C4
:102030006F936E7F6E5F7F4F8F4F9F4FAF4FB1E0BB
:102040003ED0B4E03CD0670F781F891F9A1FA11DB6
:10205000680F791F8A1F911DA11D6A0F711D811DB7
:10206000911DA11D20D009F468943F912AE0269F7C
:1020700011243019305D3193DEF6CF010895462FDB
:102080004770405D4193B3E00FD0C9F7F6CF462FBC
:102090004F70405D4A3318F0495D31FD4052419325
:1020A00002D0A9F7EACFB4E0A695979587957795E2
:1020B0006795BA95C9F700976105710508959B0169
:1020C000AC010A2E06945795479537952795BA95F2
:1020D000C9F7620F731F841F951FA01D0895F89400
:0220E000FFCF30
:1020E20000004C0120002530352E336600466C6F0F
:1020F200617400496E74004D3A2025643B204E3ACB
:102102002025643B20547970653A202573200D0AFE
:10211200007C000900097C0D0A004D617472697A25
:08212200204E756C610D0A00EE
:00000001FF
