:100000000C94DB000C94F0000C94F0000C94F000C5
:100010000C94F0000C94F0000C94F0000C94F000A0
:100020000C94F0000C94F0000C94F0000C94F00090
:100030000C94F0000C94F0000C94F0000C94F00080
:100040000C94F0000C94F0000C94F0000C94F00070
:100050000C94F0000C94F0000C94F0000C94F00060
:100060000C94F0000C94F000084AD73B3BCE016E94
:1000700084BCBFFDC12F3D6C74319ABD56833DDAFF
:100080003D00C77F11BED9E4BB4C3E916BAAAABE0E
:10009000000000803F05A84CCDB2D44EB93836A937
:1000A000020C50B9918688083CA6AAAA2ABE000074
:1000B00000803F006E616E00696E660000407A103D
:1000C000F35A00A0724E18090010A5D4E80000E809
:1000D0007648170000E40B54020000CA9A3B000067
:1000E00000E1F505000080969800000040420F00F6
:1000F0000000A08601000000102700000000E803B7
:10010000000000006400000000000A000000000081
:100110000100000000002C76D888DC674F0823DF40
:10012000C1DFAE59E1B1B796E5E3E453C63AE65113
:10013000997696E8E6C28426EB898C9B62ED407C3A
:100140006FFCEFBC9C9F40F2BAA56FA5F490055AD6
:100150002AF75C936B6CF9676DC11BFCE0E40D47FB
:10016000FEF520E6B500D0ED902E0300943577051E
:100170000080841E080000204E0A000000C80C33D6
:100180003333330F986E12831141EF8D2114893B65
:10019000E65516CFFEE6DB18D1844B381BF77C1DE5
:1001A000901DA4BBE424203284725E228100C9F138
:1001B00024ECA1E53D2711241FBECFEFD8E0DEBF20
:1001C000CDBF11E0A0E0B1E0EAE2F7E202C00590A5
:1001D0000D92A832B107D9F70E94C6040C9493136C
:1001E0000C9400002F923F924F925F926F927F92F9
:1001F0008F929F92AF92BF92CF92DF92EF92FF9237
:100200000F931F93CF93DF93CDB7DEB76C970FB6E5
:10021000F894DEBF0FBECDBF3C01498F5A8F6B8F64
:100220007C8FC901B801D1011C962D913D914D9152
:100230005C911F9729873A874B875C87A7019601B6
:100240000E94950A29853A854B855C850E94100D90
:1002500020E030E0A9010E94960A6D8B7E8B8F8B87
:10026000988F29853A854B855C8550582D833E8330
:100270004F83588729A93AA94BA95CA96DA97EA9E2
:100280008FA998AD0E94960A9B01AC016D817E8179
:100290008F8198850E94100D69837A838B839C835C
:1002A00069857A858B859C850E94CB0D29AD3AADF9
:1002B0004BAD5CAD0E94100D698B7A8B8B8B9C8B48
:1002C000D10118966D917D918D919C911B970E9403
:1002D000CB0D9B01AC0169897A898B899C890E942D
:1002E000100D9B01AC0169817A818B819C810E94F8
:1002F000960AA50194010E94960A69837A838B83EA
:100300009C8329AD3AAD4BAD5CAD6D817E818F8113
:1003100098850E94100D4B015C0129A93AA94BA9AF
:100320005CA90E94960A698B7A8B8B8B9C8BA501AA
:1003300094016DA97EA98FA998AD0E94960A4B01E0
:100340005C01F10164817581868197810E94CB0DEA
:100350006D877E878F87988B2D893E894F89588D31
:10036000698D7A8D8B8D9C8D0E94950A6D837E831D
:100370008F839887D1012D913D914D915C91698139
:100380007A818B819C810E94960A1B012C019B0122
:10039000AC0169817A818B819C810E947E0B2D81C9
:1003A0003E814F8158850E94100D2D893E894F89CD
:1003B000588D0E94960AF301608371838283938330
:1003C000A2019101C501B4010E947E0B2D813E81E5
:1003D0004F8158850E94100DA70196010E94960A30
:1003E000D30114966D937D938D939C9317972981D8
:1003F0003A814B815C8118962D933D934D935C938C
:100400001B9729893A894B895C891C962D933D93CA
:100410004D935C931F97F301808A918AA28AB38AD5
:100420002D853E854F85588969857A858B859C8584
:100430000E94100D29AD3AAD4BAD5CAD0E94960AFD
:10044000D30154966D937D938D939C935797C301DD
:100450006C960FB6F894DEBF0FBECDBFDF91CF9183
:100460001F910F91FF90EF90DF90CF90BF90AF90D2
:100470009F908F907F906F905F904F903F902F90C4
:10048000089580E48093C00088E08093C10086E0F6
:100490008093C20087E68093C4001092C50008953F
:1004A000E0ECF0E0908195FFFDCF8093C6000895C9
:1004B000CF93DF93EC018881882331F021960E944D
:1004C000500289918111FBCFDF91CF910895CF9395
:1004D000DF93CDB7DEB764970FB6F894DEBF0FBEDB
:1004E000CDBFAB01BC01FE01739622E130E0842F49
:1004F0008F708A3018F4805D808302C0895C8083AD
:10050000DB01CA0177231CF40F96A11DB11DAC01BC
:10051000BD01689413F8759567955795479516949E
:10052000D1F721503109411551056105710521F0BF
:10053000319721303105D9F61C8AC9010197E1E0D4
:10054000F0E0EC0FFD1FE20FF31F48E7408321E0CE
:1005500030E02C0F3D1F820F931F20E3FC0120830E
:100560000E94580264960FB6F894DEBF0FBECDBF4E
:10057000DF91CF9108950F931F93CF93DF93CDB762
:10058000DEB764970FB6F894DEBF0FBECDBF9F9362
:100590008F937F936F9382E091E09F938F938E016F
:1005A0000F5F1F4F1F930F930E941213C8010E94E9
:1005B00058020FB6F894DEBF0FBECDBF64960FB6DB
:1005C000F894DEBF0FBECDBFDF91CF911F910F9189
:1005D0000895E9EBF0E010828CE08093B80084E0AD
:1005E0008093BC008081887F089584EA8093BC005A
:1005F000ECEBF0E080818823ECF78091B900887FF4
:10060000089584E98093BC008091B900887F0895A3
:100610008093BB0084E88093BC00ECEBF0E0808129
:100620008823ECF78091B900887F089584EC80934B
:10063000BC00ECEBF0E080818823ECF78091BB00FC
:10064000089584E88093BC00ECEBF0E0808188237F
:10065000ECF78091BB000895CF93C82F89E091E01B
:100660000E9458026C2F70E080E090E00E946702C8
:1006700080E091E00E945802CF9108951F93CF939C
:10068000DF93C82FD62F142F0E94F5028C2F0E94C3
:100690000803883161F48D2F0E940803883239F4F1
:1006A000812F0E940803883211F40E940103DF9118
:1006B000CF911F910895883F11F00E942C03089557
:1006C00041E06BE680ED0E943E030E945B038FE9F0
:1006D0009FE00197F1F700C0000042E067E380ED82
:1006E0000E943E030E945B038FE99FE00197F1F7B0
:1006F00000C0000040E46AE680ED0E943E030E94D4
:100700005B038FE99FE00197F1F700C0000040E034
:100710006BE180ED0E943E030E945B038FE99FE046
:100720000197F1F700C0000040E06CE180ED0E940D
:100730003E030E945B038FE99FE00197F1F700C041
:10074000000047E069E180ED0E943E030E945B03E8
:100750008FE99FE00197F1F700C0000008955F92D4
:100760006F927F928F929F92AF92BF92CF92DF92C1
:10077000EF92FF920F931F93CF93DF934C015B0196
:10078000EA0139010E94F50280ED0E9408038BE323
:100790000E9408032FEF89EF90E0215080409040A5
:1007A000E1F700C000000E94F50281ED0E940803FD
:1007B0000E941603582E0E941603252D30E0322F7A
:1007C0002227282BF401318320830E941603982EC0
:1007D0000E941603292D30E0322F2227282BF50105
:1007E000318320830E941603B82E0E9416032B2DFE
:1007F00030E0322F2227282B398328830E941603CA
:10080000C82F0E9416032C2F30E0322F2227282BCE
:10081000F301318320830E941603C82F0E94160320
:100820002C2F30E0322F2227282BF8013183208310
:100830000E941603C82F0E9416032C2F30E0322F7F
:100840002227282BF701318320830E941603C82F0B
:100850000E9421032C2F30E0322F2227282BF60173
:10086000318320830E9401038FE99FE00197F1F714
:1008700000C00000DF91CF911F910F91FF90EF908A
:10088000DF90CF90BF90AF909F908F907F906F90B0
:100890005F9008958FE99FE00197F1F700C0000095
:1008A00040E160E08CE30E943E038FE99FE0019706
:1008B000F1F700C0000040E061E08CE30E943E03DD
:1008C0000E945B038FE99FE00197F1F700C00000F1
:1008D00040E062E08CE30E943E030E945B038FE9EC
:1008E0009FE00197F1F700C000000895DF92EF92BA
:1008F000FF920F931F93CF93DF93EC017B018A014B
:100900000E94F5028CE30E94080383E00E94080322
:100910002FEF89EF90E0215080409040E1F700C038
:1009200000000E94F5028DE30E9408030E94160356
:10093000D82E0E9416032D2D30E0322F2227282B8F
:10094000398328830E941603C82F0E9416032C2F78
:1009500030E0322F2227282BF701318320830E9499
:100960001603C82F0E9421032C2F30E0322F22279C
:10097000282BF801318320830E940103DF91CF915E
:100980001F910F91FF90EF90DF900895CF93DF9329
:10099000CDB7DEB7CC5CD1090FB6F894DEBF0FBE81
:1009A000CDBF86EA9BE9A4E4BBE389879A87AB873E
:1009B000BC878FE892ECA5EFBCE38D839E83AF8369
:1009C000B8876FE175E88BE69EE30E94CB0D6983E3
:1009D0007A838B839C838DEC9CECACE4BDE38D87A8
:1009E0009E87AF87B88B0E9441020E94E9020E9455
:1009F00060030E944A042FEF8FE493EC2150804063
:100A00009040E1F700C00000AAE0C754DF4FA88380
:100A1000C95BD040B7EDC654DF4FB883CA5BD04046
:100A200023E2C554DF4F2883CB5BD0408CE3C45412
:100A3000DF4F8883CC5BD040CB54DF4F1882C55B3F
:100A4000D040CA54DF4F1882C65BD040C954DF4F34
:100A50001882C75BD040C854DF4F1882C85BD040B3
:100A6000CF54DF4F1882C15BD040CE54DF4F188285
:100A7000C25BD040CD54DF4F1882C35BD040CC5412
:100A8000DF4F1882C45BD0408AE097EDA3E2BCE35D
:100A9000CB56DF4F88839983AA83BB83C559D04047
:100AA0009AE0C355DF4F9883CD5AD040A7EDC25589
:100AB000DF4FA883CE5AD040B3E2C155DF4FB88391
:100AC000CF5AD0402CE3C055DF4F2883C05BD040C5
:100AD000C755DF4F1882C95AD040C655DF4F18821C
:100AE000CA5AD040C555DF4F1882CB5AD040C455A2
:100AF000DF4F1882CC5AD040CB55DF4F1882C55AF1
:100B0000D040CA55DF4F1882C65AD040C955DF4F72
:100B10001882C75AD040C855DF4F1882C85AD040F3
:100B20008AE097EDA3E2BCE3CF56DF4F8883998339
:100B3000AA83BB83C159D0409AE0CF55DF4F988339
:100B4000C15AD040A7EDCE55DF4FA883C25AD0403E
:100B5000B3E2CD55DF4FB883C35AD040CC55DF4FF9
:100B60002883C45AD040C356DF4F1882CD59D04095
:100B7000C256DF4F1882CE59D040C156DF4F18827F
:100B8000CF59D040C056DF4F1882C05AD040C75608
:100B9000DF4F1882C959D040C656DF4F1882CA5954
:100BA000D040C556DF4F1882CB59D040C456DF4FD6
:100BB0001882CC59D0408AE097EDA3E2BCE3C3573A
:100BC000DF4F88839983AA83BB83CD58D040C75712
:100BD000DF4F188219821A821B82C958D040CB5726
:100BE000DF4F188219821A821B82C558D040CF5716
:100BF000DF4F188219821A821B82C158D040DE0151
:100C00005D966D01CE014B967C018E01075E1F4FF4
:100C10009E01295E3F4FAE014B5E5F4FBE016D5E90
:100C20007F4F0A970E94AF03AE014D5D5F4FBE013B
:100C30006F5D7F4FCE014F960E94760469897A8955
:100C4000072E000C880B990B0E94F20B2DE334EC5D
:100C500040ED54E40E947E0B2B013C016B897C89A2
:100C6000072E000C880B990B0E94F20B2DE334EC3D
:100C700040ED54E40E947E0B4B015C016D897E893E
:100C8000072E000C880B990B0E94F20B2DE334EC1D
:100C900040ED54E40E947E0B6B017C01698D7A8DDE
:100CA000072E000C880B990B0E94F20B20E030E01D
:100CB00043E053E40E947E0BC354DF4F6883798383
:100CC0008A839B83CD5BD0406B8D7C8D072E000C7F
:100CD000880B990B0E94F20B20E030E043E053E4D4
:100CE0000E947E0BCF53DF4F688379838A839B8377
:100CF000C15CD0406D8D7E8D072E000C880B990B4A
:100D00000E94F20B20E030E043E053E40E947E0BAF
:100D1000CB53DF4F688379838A839B83C55CD04044
:100D20006F8D78A1CB01770FAA0BBB0BBC01CD0156
:100D30006C567442874F9F4F24E636E940E050E0FE
:100D40000E947411CA01B9010E94F20BC753DF4F10
:100D5000688379838A839B83C95CD04069A17AA127
:100D6000CB01770FAA0BBB0BBC01CD0160587A44B5
:100D70008E4F9F4F20E134EA40E050E00E94741112
:100D8000CA01B9010E94F20BE9966CAF7DAF8EAF3C
:100D90009FAFE9976BA17CA1CB01770FAA0BBB0B8F
:100DA000BC01CD01605C7C41864F9F4F28E233E25D
:100DB00040E050E00E947411CA01B9010E94F20B98
:100DC000ED966CAF7DAF8EAF9FAFED97A70196010B
:100DD000C501B4010E94150BE1966CAF7DAF8EAFDB
:100DE0009FAFE19720E030E0A901C701B6010E9462
:100DF000740B88232CF0212C312C00E81FE304C055
:100E0000212C312C00E81FEBC501B4010E94CB0D51
:100E10004B015C01C701B6010E94CB0D6B017C0147
:100E2000A7019601C501B4010E94960A0E948B0D8C
:100E30009B01AC01622D732D802F912F0E94100D0C
:100E40009B01AC01C301B20190580E94150BE596BD
:100E50006CAF7DAF8EAF9FAFE5970E94790B2B01F2
:100E60003C01E5966CAD7DAD8EAD9FADE5970E94E2
:100E70007D0D4B015C01E1966CAD7DAD8EAD9FADFE
:100E8000E1970E947D0D6B017C01E1966CAD7DAD1B
:100E90008EAD9FADE1970E94790BC358DF4F6883F9
:100EA00079838A839B83CD57D040C753DF4F2881F6
:100EB00039814A815B81C95CD040C301B2010E9483
:100EC000100D2B013C01E9962CAD3DAD4EAD5FAD53
:100ED000E997C501B4010E94100DA70196010E9477
:100EE000100D9B01AC01C301B2010E94960A2B01B7
:100EF0003C01A5019401ED966CAD7DAD8EAD9FAD2D
:100F0000ED970E94100DC358DF4F288139814A8127
:100F10005B81CD57D0400E94100D9B01AC01C301F5
:100F2000B2010E94960A4B015C01A7019601ED9661
:100F30006CAD7DAD8EAD9FADED970E94100D6B0138
:100F40007C01C358DF4F288139814A815B81CD57AD
:100F5000D040E9966CAD7DAD8EAD9FADE9970E9416
:100F6000100D9B01AC01C701B6010E94950AA501B5
:100F700094010E94150B2B013C01CC55DF4F988149
:100F8000C45AD0409F93CD55DF4FA881C35AD0405B
:100F9000AF93CE55DF4FB881C25AD040BF93CF55E3
:100FA000DF4F2881C15AD0402F93C056DF4F888130
:100FB000C05AD0408F93C156DF4F9881CF59D0404F
:100FC0009F93C256DF4FA881CE59D040AF93C356EE
:100FD000DF4FB881CD59D040BF93C456DF4F288131
:100FE000CC59D0402F93C556DF4F8881CB59D04084
:100FF0008F93C656DF4F9881CA59D0409F93C756EA
:10100000DF4FA881C959D040AF93CE0101961C0192
:10101000C357DF4F88809980AA80BB80CD58D040CD
:10102000CF57DF4FC880D980EA80FB80C158D040BD
:10103000C354DF4F088119812A813B81CD5BD040A9
:10104000E1964CAD5DAD6EAD7FADE19784960E94AB
:10105000F200CDA0DEA0EFA0F8A489A59AA5ABA5CB
:10106000BCA5CF57DF4F88839983AA83BB83C15820
:10107000D0408DA59EA5AFA5B8A9C357DF4F8883E3
:101080009983AA83BB83CD58D04099A9C756DF4F17
:101090009883C959D040AAA9C656DF4FA883CA5918
:1010A000D040BBA9C556DF4FB883CB59D0402CA93F
:1010B000C456DF4F2883CC59D0408DA9C356DF4F8B
:1010C0008883CD59D0409EA9C256DF4F9883CE5910
:1010D000D040AFA9C156DF4FA883CF59D040B8AD9B
:1010E000C056DF4FB883C05AD04029ADCF55DF4F2F
:1010F0002883C15AD0408AADCE55DF4F8883C25A6B
:10110000D0409BADCD55DF4F9883C35AD040ACAD96
:10111000CC55DF4FA883C45AD0408CE191E00E94A7
:101120005802C701B6010E94BB028FE191E00E9404
:101130005802C055DF4FB881C05BD040BF93C15546
:10114000DF4F2881CF5AD0402F93C255DF4F88817F
:10115000CE5AD0408F93C355DF4F9881CD5AD0409F
:101160009F93C455DF4FA881CC5AD040AF93C5554B
:10117000DF4FB881CB5AD040BF93C655DF4F28818F
:10118000CA5AD0402F93C755DF4F8881C95AD040E3
:101190008F93C855DF4F9881C85AD0409F93C95547
:1011A000DF4FA881C75AD040AF93CA55DF4FB881EF
:1011B000C65AD040BF93CB55DF4F2881C55AD04087
:1011C0002F93C101CF56DF4F88809980AA80BB80C2
:1011D000C159D040CB57DF4FC880D980EA80FB800F
:1011E000C558D040CF53DF4F088119812A813B81F8
:1011F000C15CD040E5964CAD5DAD6EAD7FADE59781
:10120000CC960E94F2002196CCACDDACEEACFFACEB
:10121000219725968CAD9DADAEADBFAD2597CB5733
:10122000DF4F88839983AA83BB83C558D040299612
:101230008CAD9DADAEADBFAD2997CF56DF4F888346
:101240009983AA83BB83C159D0402A969FAD2A9720
:10125000CB55DF4F9883C55AD0402B96AFAD2B9717
:10126000CA55DF4FA883C65AD0402C96BFAD2C97E5
:10127000C955DF4FB883C75AD0402D962FAD2D9753
:10128000C855DF4F2883C85AD0402E968FAD2E9771
:10129000C755DF4F8883C95AD0402F969FAD2F97EF
:1012A000C655DF4F9883CA5AD0406096AFAD60975D
:1012B000C555DF4FA883CB5AD0406196BFAD61972B
:1012C000C455DF4FB883CC5AD04062962FAD629799
:1012D000C355DF4F2883CD5AD04063968FAD6397B7
:1012E000C255DF4F8883CE5AD04064969FAD649735
:1012F000C155DF4F9883CF5AD0406596AFAD659703
:10130000C055DF4FA883C05BD04081E291E00E94CE
:101310005802C701B6010E94BB028FE191E00E9412
:101320005802C454DF4FB881CC5BD040BF93C55442
:10133000DF4F2881CB5BD0402F93C654DF4F88818D
:10134000CA5BD0408F93C754DF4F9881C95BD040B0
:101350009F93C854DF4FA881C85BD040AF93C95456
:10136000DF4FB881C75BD040BF93CA54DF4F28819D
:10137000C65BD0402F93CB54DF4F8881C55BD040F4
:101380008F93CC54DF4F9881C45BD0409F93CD5452
:10139000DF4FA881C35BD040AF93CE54DF4FB881FD
:1013A000C25BD040BF93CF54DF4F2881C15BD04098
:1013B0002F93C101CB56DF4F88809980AA80BB80D4
:1013C000C559D040C757DF4FC880D980EA80FB801D
:1013D000C958D040CB53DF4F088119812A813B8106
:1013E000C55CD040B301A2018C5A9F4F0E94F2000D
:1013F0006996CCACDDACEEACFFAC69976D968CAD6C
:101400009DADAEADBFAD6D97C757DF4F8883998354
:10141000AA83BB83C958D040A1968CAD9DADAEAD1B
:10142000BFADA197CB56DF4F88839983AA83BB8337
:10143000C559D040A2969FADA297CF54DF4F988355
:10144000C15BD040A396AFADA397CE54DF4FA88326
:10145000C25BD040A496BFADA497CD54DF4FB883F4
:10146000C35BD040A5962FADA597CC54DF4F288302
:10147000C45BD040A6968FADA697CB54DF4F888330
:10148000C55BD040A7969FADA797CA54DF4F9883FE
:10149000C65BD040A896AFADA897C954DF4FA883CC
:1014A000C75BD040A996BFADA997C854DF4FB8839A
:1014B000C85BD040AA962FADAA97C754DF4F2883A8
:1014C000C95BD040AB968FADAB97C654DF4F8883D6
:1014D000CA5BD040AC969FADAC97C554DF4F9883A4
:1014E000CB5BD040AD96AFADAD97C454DF4FA88372
:1014F000CC5BD0400FB6F894DEBF0FBECDBF84E208
:1015000091E00E945802C701B6010E94BB028FE120
:1015100091E00E9458029FEFA1EEB4E09150A040EC
:10152000B040E1F700C000006ACB5058BB27AA27A3
:101530000E94AD0A0C94BA0C0E94810C38F00E94F3
:10154000880C20F039F49F3F19F426F40C94570CC2
:101550000EF4E095E7FB0C94510CE92F0E94DF0C90
:1015600058F3BA17620773078407950720F079F4D8
:10157000A6F50C94010D0EF4E0950B2EBA2FA02DBC
:101580000B01B90190010C01CA01A0011124FF2730
:10159000591B99F0593F50F4503E68F11A16F0402B
:1015A000A22F232F342F4427585FF3CF469537952A
:1015B0002795A795F0405395C9F77EF41F16BA0BEF
:1015C000620B730B840BBAF09150A1F0FF0FBB1F9D
:1015D000661F771F881FC2F70EC0BA0F621F731FE6
:1015E000841F48F4879577956795B795F7959E3F43
:1015F00008F0B0CF9395880F08F09927EE0F9795D4
:10160000879508950E94810C60F080E891E009F4CC
:101610009EEF0E94880C28F040E851E071F45EEFE4
:101620000CC00C94570C0C94010DE92FE0780E942B
:10163000DF0C40F3092E052AB1F3261737074807B8
:10164000590738F00E2E07F8E02569F0E025E06430
:101650000AC0EF6307F8009407FADB01B9019D01A6
:10166000DC01CA01AD01EF930E94950B0E94BA0CF8
:101670000E94450B5F91552339F02BED3FE049E483
:1016800050FD49EC0C94960A0895DF93DD27B92F9D
:10169000BF7740E85FE31616170648075B0718F4A4
:1016A000D92F0E94080D9F938F937F936F930E9471
:1016B000CB0DE8E6F0E00E945A0C0E94BA0C2F9184
:1016C0003F914F915F910E94230DDD2351F090587F
:1016D000A2EA2AED3FE049EC5FE3D0785D270E9463
:1016E000AD0ADF910C94BA0C0E942D0C08F481E035
:1016F00008950E94910CE3950C94CB0C0E94920BE0
:101700000C94BA0C0E94880C58F00E94810C40F096
:1017100029F45F3F29F00C94510C51110C94020DE7
:101720000C94570C0E94DF0C68F39923B1F35523F6
:1017300091F3951B550BBB27AA27621773078407E4
:1017400038F09F5F5F4F220F331F441FAA1FA9F37A
:1017500035D00E2E3AF0E0E832D091505040E69568
:10176000001CCAF72BD0FE2F29D0660F771F881FC9
:10177000BB1F261737074807AB07B0E809F0BB0BBC
:10178000802DBF01FF2793585F4F3AF09E3F5105D0
:1017900078F00C94510C0C94020D5F3FE4F3983EEA
:1017A000D4F3869577956795B795F7959F5FC9F7B9
:1017B000880F911D9695879597F90895E1E0660F3A
:1017C000771F881FBB1F621773078407BA0720F0B3
:1017D000621B730B840BBA0BEE1F88F7E09508951C
:1017E000E89409C097FB3EF49095809570956195BB
:1017F0007F4F8F4F9F4F9923A9F0F92F96E9BB2771
:101800009395F695879577956795B795F111F8CFEC
:10181000FAF4BB0F11F460FF1BC06F5F7F4F8F4F57
:101820009F4F16C0882311F096E911C0772321F04D
:101830009EE8872F762F05C0662371F096E8862FE5
:1018400070E060E02AF09A95660F771F881FDAF73C
:10185000880F9695879597F90895990F0008550F69
:10186000AA0BE0E8FEEF16161706E807F907C0F026
:1018700012161306E407F50798F0621B730B840B2E
:10188000950B39F40A2661F0232B242B252B21F408
:1018900008950A2609F4A140A6958FEF811D811DA8
:1018A000089597F99F6780E870E060E008959FEFE2
:1018B00080EC0895DF93CF931F930F93FF92EF92E5
:1018C000DF927B018C01689406C0DA2EEF010E9442
:1018D000230DFE01E894A5912591359145915591EF
:1018E000A6F3EF010E94AD0AFE019701A801DA9468
:1018F00069F7DF90EF90FF900F911F91CF91DF91EB
:10190000089500240A941616170618060906089565
:1019100000240A94121613061406050608950C9462
:10192000570C0E94E70CD8F3E894E0E0BB279F57E0
:10193000F0F02AED3FE049EC06C0EE0FBB0F661F4A
:10194000771F881F28F0B23A62077307840728F0D0
:10195000B25A620B730B840BE3959A9572F7803839
:1019600030F49A95BB0F661F771F881FD2F79048F7
:101970000C94D10D092E0394000C11F4882352F01D
:10198000BB0F40F4BF2B11F460FF04C06F5F7F4FAB
:101990008F4F9F4F0895EF93E0FF07C0A2EA2AED13
:1019A0003FE049EC5FEB0E94AD0A0E94BA0C0F9039
:1019B000039401FC9058E5E9F0E00C94E40D57FD28
:1019C0009058440F551F59F05F3F71F04795880FAD
:1019D00097FB991F61F09F3F79F087950895121644
:1019E00013061406551FF2CF4695F1DF08C01616F0
:1019F00017061806991FF1CF8695710561050894A1
:101A00000895E894BB2766277727CB0197F90895B7
:101A10009B01AC0160E070E080E89FE30C947E0BDA
:101A20000E94230D0C94BA0C0E94810C38F00E9485
:101A3000880C20F0952311F00C94510C0C94570C49
:101A400011240C94020D0E94DF0C70F3959FC1F3DA
:101A5000950F50E0551F629FF001729FBB27F00D5C
:101A6000B11D639FAA27F00DB11DAA1F649F6627B1
:101A7000B00DA11D661F829F2227B00DA11D621F00
:101A8000739FB00DA11D621F839FA00D611D221FBA
:101A9000749F3327A00D611D231F849F600D211D9E
:101AA000822F762F6A2F11249F5750409AF0F1F021
:101AB00088234AF0EE0FFF1FBB1F661F771F881F8A
:101AC00091505040A9F79E3F510580F00C94510C65
:101AD0000C94020D5F3FE4F3983ED4F3869577951E
:101AE0006795B795F795E7959F5FC1F7FE2B880F30
:101AF000911D9695879597F908959F930E94910C53
:101B00000F9007FCEE5F0C94CB0C19F416F40C94B8
:101B1000570C0C94CF0D0E94E70CB8F39923C9F32E
:101B2000B6F39F57550B87FF0E94DD0D0024A0E6FA
:101B300040EA900180585695979528F4805C660F8E
:101B4000771F881F20F026173707480730F4621BDD
:101B5000730B840B202931294A2BA69517940794DF
:101B6000202531254A2758F7660F771F881F20F058
:101B700026173707480730F4620B730B840B200DD0
:101B8000311D411DA09581F7B901842F9158880F0F
:101B90009695879508959B01AC010C94100D9F3F7D
:101BA00031F0915020F4879577956795B795880F18
:101BB000911D9695879597F9089591505040660F1D
:101BC000771F881FD2F708959F938F937F936F930A
:101BD000FF93EF939B01AC010E94100DEF91FF91D9
:101BE0000E945A0C2F913F914F915F910C94100DD0
:101BF000A3E1B0E0EEEFFDE00C9493116C014B011A
:101C00002A01FC0117821682838181FF43C3AE0142
:101C10004F5F5F4F3A01F6019381F40193FD859187
:101C200093FF81914F01882309F430C3853239F441
:101C300093FD859193FF81914F01853239F4B6016F
:101C400090E00E94DA1252012501E5CF10E0F12C5C
:101C500020E02032A0F48B3269F030F4803259F069
:101C6000833269F420612CC08D3239F0803339F42D
:101C7000216026C02260246023C0286021C027FD87
:101C800027C030ED380F3A3078F426FF06C0FAE06E
:101C90001F9F300D1124132F13C04AE0F49E300D06
:101CA0001124F32E20620CC08E3221F426FDEEC2E8
:101CB000206406C08C3611F4206802C0883641F4D6
:101CC000F40193FD859193FF81914F018111C1CF63
:101CD0009BEB980F933018F42061805E06C09BE95F
:101CE000980F933008F071C12F7E26FF16E02F73F6
:101CF000322E853619F42064322E08C0863621F43F
:101D0000F22FF0683F2E02C01111115037FE07C0AC
:101D10001C3350F4EE24E394E10E27E00BC018309E
:101D200038F027E017E005C027E04CE3E42E02C0BE
:101D3000212FE12C520144E0A40EB11CF20160817C
:101D40007181828193810E2DA3010E94EC112C01DF
:101D5000098100FF02C003FF07C031FC08C032FE4A
:101D600009C030E2232E07C02DE2222E04C09BE2E0
:101D7000292E01C0212C802F8C7019F0211068C2EF
:101D8000A8C237FE0FC0E40C04FF04C08A8181336F
:101D900009F4EA941E1474F5F8E0FE1578F588E06D
:101DA000E82E2CC036FC2AC0812F90E084159505C2
:101DB0009CF02CEF42162FEF520674F0432D406832
:101DC000342E0AC0E2E0F0E0EC0FFD1FE10FF11D40
:101DD0008081803319F411501111F4CF37FE0EC0F9
:101DE000EE24E394E10E812F90E0481659062CF47E
:101DF000141904C0EE24E39401C010E037FE06C0BD
:101E00001414150434F4C201019605C085E090E075
:101E100002C081E090E021100196112331F0212FC2
:101E200030E02F5F3F4F820F931F2F2D30E082173E
:101E3000930714F4F81A01C0F12C832D897049F42A
:101E4000FF2039F0B60180E290E00E94DA12FA94A5
:101E5000F7CF222029F0B601822D90E00E94DA12FD
:101E600033FC09C0FF2039F0B60180E390E00E9406
:101E7000DA12FA94F7CF37FE5AC0942D852D57FE0B
:101E800002C090E080E0292E382E20E030E0A20150
:101E90004E1951095D874C87A201421953095F878A
:101EA0004E87612F70E044275527461B570B598BEF
:101EB000488B5FEF2516350649F4B6018EE290E0B7
:101EC0002A8B3B8B0E94DA123B892A8942145304E5
:101ED0006CF04C855D854215530544F4EE85FF8515
:101EE000E20FF31FE60DF71D818101C080E351E091
:101EF000251A31082F5F3F4F488959892416350626
:101F00004CF0B60190E02A8B3B8B0E94DA122A89B2
:101F10003B89CFCF2414350439F49A81963318F4D1
:101F2000953311F404FF81E3B60190E04BC08A8140
:101F3000813309F00F7EB60190E00E94DA12111190
:101F400005C034FC18C085E690E017C0B6018EE2EB
:101F500090E00E94DA1282E0EE24E394E80EF301AE
:101F6000E80FF11D8081B60190E00E94DA12115055
:101F70008E2D91F7E6CF85E490E0B6010E94DA124B
:101F800057FC05C04114510439F404FF05C05194B5
:101F9000419451088DE201C08BE2B60190E00E94AD
:101FA000DA1280E39AE0491651042CF08F5F5AE070
:101FB000451A5108F7CFB60190E00E94DA12B60137
:101FC000C201C0960E94DA1257C1833631F08337BE
:101FD00079F0833509F058C021C05201E2E0AE0E1D
:101FE000B11CF2018081898301E010E0230114C05B
:101FF0005201F2E0AF0EB11CF2014080518026FF89
:1020000003C0612F70E002C06FEF7FEFC2012A8B27
:102010000E94CF128C012A892F7715C05201F2E05D
:10202000AF0EB11CF2014080518026FF03C0612F2A
:1020300070E002C06FEF7FEFC2012A8B0E94C412D2
:102040008C012A892068322E23FD1AC08F2D90E042
:1020500008171907A8F4B60180E290E00E94DA128E
:10206000FA94F4CFF20137FC859137FE81912F016C
:10207000B60190E00E94DA12F110FA9401501109B1
:102080000115110579F7F8C0843611F0893659F534
:10209000520127FF09C0F4E0AF0EB11CF2016081CC
:1020A0007181828193810AC0F2E0AF0EB11CF2010E
:1020B00060817181072E000C880B990B2F76322ED0
:1020C00097FF09C090958095709561957F4F8F4FD0
:1020D0009F4F2068322E2AE030E0A3010E94351382
:1020E000E82EE6183FC0022F853721F40F7E2AE044
:1020F00030E01DC0097F8F3691F018F4883559F013
:10210000C5C0803719F0883711F0C0C0006104FFE6
:1021100009C0046007C024FF08C0066006C028E0AC
:1021200030E005C020E130E002C020E132E05201A1
:1021300007FF09C0F4E0AF0EB11CF20160817181AC
:102140008281938108C0F2E0AF0EB11CF201608180
:10215000718180E090E0A3010E943513E82EE6181B
:102160000F77302E36FE0BC0332D3E7FE11650F434
:1021700034FE0AC032FC08C0332D3E7E05C00E2D51
:10218000332D03C00E2D01C0012F34FF0CC0FE0102
:10219000EE0DF11D8081803311F4397E08C032FFCD
:1021A00005C00E5F04C0832F867809F00F5F33FDF2
:1021B00013C030FF06C01E2D0F1518F41F0D101B85
:1021C0000F2D0F1568F4B60180E290E03B8B0E9462
:1021D000DA120F5F3B89F5CF0F1510F4F01A01C02A
:1021E000F12C34FF12C0B60180E390E03B8B0E94DB
:1021F000DA123B8932FF17C031FD03C088E790E057
:1022000002C088E590E0B6010CC0832F867859F0B3
:1022100031FF02C08BE201C080E237FD8DE2B601E2
:1022200090E00E94DA12E11638F4B60180E390E003
:102230000E94DA121150F7CFEA94F301EE0DF11D6E
:102240008081B60190E00E94DA12E110F5CF14C04F
:10225000F4E0FF1558F584E0F81A33FE1EC0211093
:1022600026C003FF2AC004EB10E0F32DF0713F2ECF
:10227000F8018491811124C0FF2009F4E5CCB60156
:1022800080E290E00E94DA12FA94F6CFF60186819D
:10229000978126C08FEF9FEF23C0B60180E290E0C8
:1022A0000E94DA12FA94F110F8CFD9CFF12CB601CE
:1022B000822D90E00E94DA12D4CF08EB10E0D5CF47
:1022C00031108052B60190E00E94DA120F5F1F4F6A
:1022D000CFCF23E02F1510F483E0BECFF12CC1CF78
:1022E0006396E2E10C94AF11052E97FB1EF4009467
:1022F0000E948B1157FD07D00E94CA1107FC03D022
:102300004EF40C948B1150954095309521953F4F8C
:102310004F4F5F4F089590958095709561957F4FD1
:102320008F4F9F4F08952F923F924F925F926F92DF
:102330007F928F929F92AF92BF92CF92DF92EF9255
:10234000FF920F931F93CF93DF93CDB7DEB7CA1BD6
:10235000DB0B0FB6F894DEBF0FBECDBF09942A8801
:10236000398848885F846E847D848C849B84AA84A9
:10237000B984C884DF80EE80FD800C811B81AA8136
:10238000B981CE0FD11D0FB6F894DEBF0FBECDBF01
:10239000ED010895A1E21A2EAA1BBB1BFD010DC081
:1023A000AA1FBB1FEE1FFF1FA217B307E407F50705
:1023B00020F0A21BB30BE40BF50B661F771F881FE1
:1023C000991F1A9469F760957095809590959B0177
:1023D000AC01BD01CF010895283008F027E0332774
:1023E000DA01990F311D87FD916000966105710535
:1023F00039F432602E5F3D9330E32A95E1F708957A
:102400009F3F30F080387105610509F03C5F3C5F0B
:102410003D93913008F08068911DDF93CF931F9317
:102420000F93FF92EF92192F987F9695E92F96952B
:102430009695E90FFF27EA5EFE4F99273327EE2492
:10244000FF24A701E70105900894079428F4360FAC
:10245000E71EF81E491F511D660F771F881F991F21
:102460000694A1F70590079428F4E70EF81E491F7B
:10247000561FC11D770F881F991F661F0694A1F76D
:102480000590079428F4F80E491F561FC71FD11D49
:10249000880F991F661F771F0694A1F70590079470
:1024A00020F4490F561FC71FD81F990F661F771FAB
:1024B000881F0694A9F784911095177041F0D6955E
:1024C000C79557954795F794E7941A95C1F7ECEBA4
:1024D000F0E068941590159135916591959105906E
:1024E0007FE27395E118F10A430B560BC90BD00933
:1024F000C0F7E10CF11E431F561FC91FD01D7EF40B
:10250000703311F48A95E6CFE894015030F0080F4B
:102510000AF40027021708F4202F2395022F7A339C
:1025200028F079E37D932A95E9F710C07D932A95E9
:1025300089F6069497956795379517951794E1183E
:10254000F10A430B560BC90BD00998F023957E91E5
:1025500073957A3308F070E37C932013B8F77E917B
:1025600070617D9330F0839571E37D9370E32A95DC
:10257000E1F71124EF90FF900F911F91CF91DF9120
:10258000992787FD90950895FC0105906150704052
:102590000110D8F7809590958E0F9F1F0895FC012C
:1025A0006150704001900110D8F7809590958E0F82
:1025B0009F1F08950F931F93CF93DF93FB012381F8
:1025C00021FD03C08FEF9FEF28C022FF16C0468178
:1025D0005781248135814217530744F4A081B1818A
:1025E0009D012F5F3F4F318320838C93268137815C
:1025F0002F5F3F4F3783268310C0EB01092F182F21
:102600000084F185E02D0995892BE1F68E819F816B
:1026100001969F838E83812F902FDF91CF911F9101
:102620000F910895AEE0B0E0E8E1F3E10C94A11160
:102630000D891E8986E08C831A8309838FEF9FE7BB
:102640009E838D83AE01475E5F4F6F89788DCE018B
:1026500001960E94F80D2F813885F801E20FF31FD3
:1026600010822E96E4E00C94BD11FA01AA272830BE
:1026700051F1203181F1E8946F936E7F6E5F7F4F4F
:102680008F4F9F4FAF4FB1E03ED0B4E03CD0670FCB
:10269000781F891F9A1FA11D680F791F8A1F911D1E
:1026A000A11D6A0F711D811D911DA11D20D009F46E
:1026B00068943F912AE0269F11243019305D3193B0
:1026C000DEF6CF010895462F4770405D4193B3E099
:1026D0000FD0C9F7F6CF462F4F70405D4A3318F040
:1026E000495D31FD4052419302D0A9F7EACFB4E0F1
:1026F000A6959795879577956795BA95C9F70097A9
:102700006105710508959B01AC010A2E0694579549
:10271000479537952795BA95C9F7620F731F841FA0
:0A272000951FA01D0895F894FFCF47
:10272A000A002530392E3366000A49324320537491
:10273A006174757320436F64653A0900323A003B4D
:08274A0000313A00333A0000AF
:00000001FF
