S01D00006D7075363035305F686D63353838335F7072696E742E73726563EF
S11300000C9434000C9449000C9449000C9449005D
S11300100C9449000C9449000C9449000C94490038
S11300200C9449000C9449000C9449000C94490028
S11300300C9449000C9449000C9449000C94490018
S11300400C9449000C9449000C9449000C94490008
S11300500C9449000C9449000C9449000C944900F8
S11300600C9449000C94490011241FBECFEFD8E032
S1130070DEBFCDBF11E0A0E0B1E0EAE4F8E002C0E9
S113008005900D92A237B107D9F70E9404030C948E
S113009023040C94000080E48093C00088E08093E3
S11300A0C10086E08093C20087E68093C40010926A
S11300B0C5000895E0ECF0E0908195FFFDCF8093BA
S11300C0C6000895CF93DF93EC018881882331F033
S11300D021960E945A0089918111FBCFDF91CF9123
S11300E008958F929F92AF92BF92DF92EF92FF9208
S11300F00F931F93CF93DF93CDB7DEB764970FB6FB
S1130100F894DEBF0FBECDBF9B01AC017E0184E13C
S1130110E80EF11C02E110E00F2EFDECDF2EF02DB5
S11301200F2EFAE08F2E912CA12CB12CF02D2D9DA9
S1130130912D1124969596959695990F892F880F50
S1130140880F980F822F891B805DF70182937F01AE
S1130150CA01B901A50194010E94E20301501109E9
S1130160211531054105510519F001301105F9F644
S11301701C8ACE01800F911F02960E946200649631
S11301800FB6F894DEBF0FBECDBFDF91CF911F91A4
S11301900F91FF90EF90DF90BF90AF909F908F9062
S11301A00895CF93DF93CDB7DEB764970FB6F89475
S11301B0DEBF0FBECDBFAB01BC01FE01739622E1D1
S11301C030E0842F8F708A3018F4805D808302C001
S11301D0895C8083DB01CA0177231CF40F96A11D7F
S11301E0B11DAC01BD01689413F8759567955795D9
S11301F047951694D1F721503109411551056105F0
S1130200710521F0319721303105D9F61C8AC901D5
S11302100197E1E0F0E0EC0FFD1FE20FF31F48E768
S1130220408321E030E02C0F3D1F820F931F20E319
S1130230FC0120830E94620064960FB6F894DEBF2E
S11302400FBECDBFDF91CF910895E9EBF0E01082AE
S11302508CE08093B80084E08093BC008081887F28
S1130260089584EA8093BC00ECEBF0E0808188235D
S1130270ECF78091B900887F089584E98093BC00ED
S11302808091B900887F08958093BB0084E88093AF
S1130290BC00ECEBF0E080818823ECF78091B9009E
S11302A0887F089584EC8093BC00ECEBF0E08081BF
S11302B08823ECF78091BB00089584E88093BC0008
S11302C0ECEBF0E080818823ECF78091BB0008958B
S11302D0CF93C82F87E091E00E9462006C2F70E0FA
S11302E080E090E00E94D1008FE691E00E946200DD
S11302F0CF9108951F93CF93DF93C82FD62F142F38
S11303000E9431018C2F0E944401883161F48D2FA9
S11303100E944401883239F4812F0E9444018832BA
S113032011F40E943D01DF91CF911F910895883F00
S113033011F00E946801089541E06BE680ED0E948F
S11303407A010E9497018FE99FE00197F1F700C0BD
S1130350000042E067E380ED0E947A010E94970169
S11303608FE99FE00197F1F700C0000040E46AE6DE
S113037080ED0E947A010E9497018FE99FE0019726
S1130380F1F700C0000040E06BE180ED0E947A01CB
S11303900E9497018FE99FE00197F1F700C00000E8
S11303A040E06CE180ED0E947A010E9497018FE9A0
S11303B09FE00197F1F700C0000047E069E180ED9C
S11303C00E947A010E9497018FE99FE00197F1F75B
S11303D000C0000008955F926F927F928F929F9267
S11303E0AF92BF92CF92DF92EF92FF920F931F933F
S11303F0CF93DF934C015B01EA0139010E94310183
S113040080ED0E9444018BE30E9444012FEF89EFA9
S113041090E0215080409040E1F700C000000E942D
S1130420310181ED0E9444010E945201582E0E9424
S11304305201252D30E0322F2227282BF40131835D
S113044020830E945201982E0E945201292D30E0EF
S1130450322F2227282BF501318320830E94520159
S1130460B82E0E9452012B2D30E0322F2227282B48
S1130470398328830E945201C82F0E9452012C2FD5
S113048030E0322F2227282BF301318320830E946E
S11304905201C82F0E9452012C2F30E0322F222704
S11304A0282BF801318320830E945201C82F0E9417
S11304B052012C2F30E0322F2227282BF7013183D1
S11304C020830E945201C82F0E945D012C2F30E02E
S11304D0322F2227282BF601318320830E943D01ED
S11304E08FE99FE00197F1F700C00000DF91CF9101
S11304F01F910F91FF90EF90DF90CF90BF90AF903E
S11305009F908F907F906F905F9008958FE99FE008
S11305100197F1F700C0000040E760E08CE30E941F
S11305207A010E9497018FE99FE00197F1F700C0DB
S1130530000040EA61E08CE30E947A010E94970186
S11305408FE99FE00197F1F700C0000040E062E00E
S11305508CE30E947A010E9497018FE99FE0019742
S1130560F1F700C000000895DF92EF92FF920F931D
S11305701F93CF93DF93EC017B018A010E94310129
S11305808CE30E94440183E00E9444012FEF89EF31
S113059090E0215080409040E1F700C000000E94AC
S11305A031018DE30E9444010E945201D82E0E9421
S11305B052012D2D30E0322F2227282B3983288316
S11305C00E945201C82F0E9452012C2F30E0322F7A
S11305D02227282BF701318320830E945201C82F40
S11305E00E945D012C2F30E0322F2227282BF801A6
S11305F0318320830E943D01DF91CF911F910F91A0
S1130600FF90EF90DF900895CF93DF93CDB7DEB7DF
S113061064970FB6F894DEBF0FBECDBF0E944B00A7
S11306200E9425010E949C010E9486022FEF8FE404
S113063093EC215080409040E1F700C000008AE133
S113064091E00E94620082E291E00E9462008AE2EC
S113065091E00E94620082E391E00E9462008FE3D5
S113066091E00E94620086E491E00E9462008DE4C1
S113067091E00E94620084E591E00E9462008DE5B1
S113068091E00E94620086E691E00E9462008EE69C
S113069091E00E946200CE010D966C0102977C01EC
S11306A08E01075F1F4F9E01295F3F4FAE014B5FD5
S11306B05F4FBE016D5F7F4F0A970E94EB01AE0151
S11306C04D5E5F4FBE016F5E7F4FCE010F960E945D
S11306D0B40269817A81072E000C880B990B0E9461
S11306E0710088E191E00E9462006B817C81072E99
S11306F0000C880B990B0E94710088E191E00E9424
S113070062006D817E81072E000C880B990B0E947C
S1130710710088E191E00E9462006F817885072E64
S1130720000C880B990B0E94710088E191E00E94F3
S1130730620069857A85072E000C880B990B0E944C
S1130740710088E191E00E9462006B857C85072E30
S1130750000C880B990B0E94710088E191E00E94C3
S113076062006D857E85072E000C880B990B0E9414
S1130770710088E191E00E9462006F857889072EFC
S1130780000C880B990B0E94710088E191E00E9493
S1130790620069897A89072E000C880B990B0E94E4
S11307A0710088E191E00E9462006B897C89072EC8
S11307B0000C880B990B0E9471008EE691E00E9458
S11307C0620069CF052E97FB1EF400940E94F90382
S11307D057FD07D00E94010407FC03D04EF40C948B
S11307E0F90350954095309521953F4F4F4F5F4FFA
S11307F0089590958095709561957F4F8F4F9F4F89
S11308000895A1E21A2EAA1BBB1BFD010DC0AA1F4D
S1130810BB1FEE1FFF1FA217B307E407F50720F065
S1130820A21BB30BE40BF50B661F771F881F991FE0
S11308301A9469F760957095809590959B01AC0129
S10D0840BD01CF010895F894FFCF25
S113084A2530352E3366000A4932432053746174C5
S113085A757320436F64653A0900416363656C5894
S113086A0900416363656C590900416363656C5A05
S113087A090054656D706572617475726109006767
S113088A79726F5809006779726F5909006779722A
S113089A6F5A09006D61676E65745809006D616766
S11308AA6E65745909006D61676E65745A000D0AA4
S10508BA000038
S9030000FC
