S01D00006D7075363035305F686D63353838335F7072696E742E73726563EF
S11300000C9434000C9449000C9449000C9449005D
S11300100C9449000C9449000C9449000C94490038
S11300200C9449000C9449000C9449000C94490028
S11300300C9449000C9449000C9449000C94490018
S11300400C9449000C9449000C9449000C94490008
S11300500C9449000C9449000C9449000C944900F8
S11300600C9449000C94490011241FBECFEFD8E032
S1130070DEBFCDBF11E0A0E0B1E0EAE5F8E002C0E8
S113008005900D92AA36B107D9F70E940C030C947F
S11300902B040C94000080E48093C00088E08093DB
S11300A0C10086E08093C20087E68093C40010926A
S11300B0C5000895E0ECF0E0908195FFFDCF8093BA
S11300C0C6000895CF93DF93EC018881882331F033
S11300D021960E945A0089918111FBCFDF91CF9123
S11300E008958F929F92AF92BF92DF92EF92FF9208
S11300F00F931F93CF93DF93CDB7DEB764970FB6FB
S1130100F894DEBF0FBECDBF9B01AC017E0184E13C
S1130110E80EF11C02E110E00F2EFDECDF2EF02DB5
S11301200F2EFAE08F2E912CA12CB12CF02D2D9DA9
S1130130912D1124969596959695990F892F880F50
S1130140880F980F822F891B805DF70182937F01AE
S1130150CA01B901A50194010E94EA0301501109E1
S1130160211531054105510519F001301105F9F644
S11301701C8ACE01800F911F02960E946200649631
S11301800FB6F894DEBF0FBECDBFDF91CF911F91A4
S11301900F91FF90EF90DF90BF90AF909F908F9062
S11301A008950F931F93CF93DF93CDB7DEB7649772
S11301B00FB6F894DEBF0FBECDBFAB01BC01FE018C
S11301C03196A2E1B0E001C0D901942F9F709A301A
S11301D018F4905D928B02C0995C928B8A019B010A
S11301E0772324F4015F1F4F2F4F3F4FB901A8011C
S11301F0689413F875956795579547951694D1F7B4
S11302009D0121503109411551056105710521F008
S1130210319721303105C1F61C8ACD010297E1E006
S1130220F0E0EC0FFD1FE20FF31F48E7408321E0ED
S113023030E02C0F3D1F820F931F20E3FC0120832D
S11302400E94620064960FB6F894DEBF0FBECDBF65
S1130250DF91CF911F910F910895E9EBF0E01082A7
S11302608CE08093B80084E08093BC008081887F18
S1130270089584EA8093BC00ECEBF0E0808188234D
S1130280ECF78091B900887F089584E98093BC00DD
S11302908091B900887F08958093BB0084E880939F
S11302A0BC00ECEBF0E080818823ECF78091B9008E
S11302B0887F089584EC8093BC00ECEBF0E08081AF
S11302C08823ECF78091BB00089584E88093BC00F8
S11302D0ECEBF0E080818823ECF78091BB0008957B
S11302E0CF93C82F80E091E00E9462006C2F70E0F1
S11302F080E090E00E94D10088E691E00E946200D4
S1130300CF9108951F93CF93DF93C82FD62F142F27
S11303100E9439018C2F0E944C01883161F48D2F89
S11303200E944C01883239F4812F0E944C0188329A
S113033011F40E944501DF91CF911F910895883FE8
S113034011F00E947001089541E06BE680ED0E9477
S113035082010E949F018FE99FE00197F1F700C09D
S1130360000042E067E380ED0E9482010E949F0149
S11303708FE99FE00197F1F700C0000040E46AE6CE
S113038080ED0E9482010E949F018FE99FE0019706
S1130390F1F700C0000040E06BE180ED0E948201B3
S11303A00E949F018FE99FE00197F1F700C00000D0
S11303B040E06CE180ED0E9482010E949F018FE980
S11303C09FE00197F1F700C0000047E069E180ED8C
S11303D00E9482010E949F018FE99FE00197F1F73B
S11303E000C0000008955F926F927F928F929F9257
S11303F0AF92BF92CF92DF92EF92FF920F931F932F
S1130400CF93DF934C015B01EA0139010E9439016A
S113041080ED0E944C018BE30E944C012FEF89EF89
S113042090E0215080409040E1F700C000000E941D
S1130430390181ED0E944C010E945A01582E0E94FC
S11304405A01252D30E0322F2227282BF401318345
S113045020830E945A01982E0E945A01292D30E0CF
S1130460322F2227282BF501318320830E945A0141
S1130470B82E0E945A012B2D30E0322F2227282B30
S1130480398328830E945A01C82F0E945A012C2FB5
S113049030E0322F2227282BF301318320830E945E
S11304A05A01C82F0E945A012C2F30E0322F2227E4
S11304B0282BF801318320830E945A01C82F0E94FF
S11304C05A012C2F30E0322F2227282BF7013183B9
S11304D020830E945A01C82F0E9465012C2F30E00E
S11304E0322F2227282BF601318320830E944501D5
S11304F08FE99FE00197F1F700C00000DF91CF91F1
S11305001F910F91FF90EF90DF90CF90BF90AF902D
S11305109F908F907F906F905F9008958FE99FE0F8
S11305200197F1F700C0000040E760E08CE30E940F
S113053082010E949F018FE99FE00197F1F700C0BB
S1130540000040EA61E08CE30E9482010E949F0166
S11305508FE99FE00197F1F700C0000040E062E0FE
S11305608CE30E9482010E949F018FE99FE0019722
S1130570F1F700C000000895DF92EF92FF920F930D
S11305801F93CF93DF93EC017B018A010E94390111
S11305908CE30E944C0183E00E944C012FEF89EF11
S11305A090E0215080409040E1F700C000000E949C
S11305B039018DE30E944C010E945A01D82E0E94F9
S11305C05A012D2D30E0322F2227282B39832883FE
S11305D00E945A01C82F0E945A012C2F30E0322F5A
S11305E02227282BF701318320830E945A01C82F28
S11305F00E9465012C2F30E0322F2227282BF8018E
S1130600318320830E944501DF91CF911F910F9187
S1130610FF90EF90DF900895CF93DF93CDB7DEB7CF
S113062064970FB6F894DEBF0FBECDBF0E944B0097
S11306300E942D010E94A4010E948E022FEF8FE4DC
S113064093EC215080409040E1F700C0000083E12A
S113065091E00E9462008BE191E00E94620083E2DB
S113066091E00E9462008BE291E00E94620088E3C4
S113067091E00E9462008FE391E00E94620086E4B0
S113068091E00E9462008DE491E00E94620086E5A0
S113069091E00E9462008FE591E00E94620087E68B
S11306A091E00E946200CE010D966C0102977C01DC
S11306B08E01075F1F4F9E01295F3F4FAE014B5FC5
S11306C05F4FBE016D5F7F4F0A970E94F301AE0139
S11306D04D5E5F4FBE016F5E7F4FCE010F960E944D
S11306E0BC0269817A81072E000C880B990B0E9449
S11306F0710081E191E00E9462006B817C81072E90
S1130700000C880B990B0E94710081E191E00E941A
S113071062006D817E81072E000C880B990B0E946C
S1130720710081E191E00E9462006F817885072E5B
S1130730000C880B990B0E94710081E191E00E94EA
S1130740620069857A85072E000C880B990B0E943C
S1130750710081E191E00E9462006B857C85072E27
S1130760000C880B990B0E94710081E191E00E94BA
S113077062006D857E85072E000C880B990B0E9404
S1130780710081E191E00E9462006F857889072EF3
S1130790000C880B990B0E94710081E191E00E948A
S11307A0620069897A89072E000C880B990B0E94D4
S11307B0710081E191E00E9462006B897C89072EBF
S11307C0000C880B990B0E94710087E691E00E944F
S11307D0620069CF052E97FB1EF400940E94010469
S11307E057FD07D00E94090407FC03D04EF40C9473
S11307F0010450954095309521953F4F4F4F5F4FE1
S1130800089590958095709561957F4F8F4F9F4F78
S11308100895A1E21A2EAA1BBB1BFD010DC0AA1F3D
S1130820BB1FEE1FFF1FA217B307E407F50720F055
S1130830A21BB30BE40BF50B661F771F881F991FD0
S11308401A9469F760957095809590959B01AC0119
S10D0850BD01CF010895F894FFCF15
S113085A0A4932432053746174757320436F646583
S113086A3A0900416363656C580900416363656C26
S113087A590900416363656C5A090054656D7065D2
S113088A72617475726109006779726F5809006739
S113089A79726F5909006779726F5A09006D616735
S11308AA6E65745809006D61676E65745909006D47
S10D08BA61676E65745A000D0A00B0
S9030000FC
